{
  "contractName": "ConsumerRole",
  "abi": [
    {
      "inputs": [],
      "stateMutability": "nonpayable",
      "type": "constructor"
    },
    {
      "anonymous": false,
      "inputs": [
        {
          "indexed": true,
          "internalType": "address",
          "name": "account",
          "type": "address"
        },
        {
          "indexed": false,
          "internalType": "uint256",
          "name": "timestamp",
          "type": "uint256"
        }
      ],
      "name": "ConsumerAdded",
      "type": "event"
    },
    {
      "anonymous": false,
      "inputs": [
        {
          "indexed": true,
          "internalType": "address",
          "name": "account",
          "type": "address"
        },
        {
          "indexed": false,
          "internalType": "uint256",
          "name": "timestamp",
          "type": "uint256"
        }
      ],
      "name": "ConsumerRemoved",
      "type": "event"
    },
    {
      "inputs": [
        {
          "internalType": "address",
          "name": "_account",
          "type": "address"
        }
      ],
      "name": "isConsumer",
      "outputs": [
        {
          "internalType": "bool",
          "name": "",
          "type": "bool"
        }
      ],
      "stateMutability": "view",
      "type": "function"
    },
    {
      "inputs": [
        {
          "internalType": "address",
          "name": "_account",
          "type": "address"
        }
      ],
      "name": "enableConsumer",
      "outputs": [],
      "stateMutability": "nonpayable",
      "type": "function"
    },
    {
      "inputs": [
        {
          "internalType": "address",
          "name": "_account",
          "type": "address"
        }
      ],
      "name": "revokeConsumer",
      "outputs": [],
      "stateMutability": "nonpayable",
      "type": "function"
    }
  ],
  "bytecode": "0x608060405234801561001057600080fd5b506100203361002560201b60201c565b6102d9565b61003d81600061004060201b61020f1790919060201c565b50565b600073ffffffffffffffffffffffffffffffffffffffff168173ffffffffffffffffffffffffffffffffffffffff1614156100b0576040517f08c379a00000000000000000000000000000000000000000000000000000000081526004016100a790610236565b60405180910390fd5b6100c0828261015e60201b60201c565b15610100576040517f08c379a00000000000000000000000000000000000000000000000000000000081526004016100f790610256565b60405180910390fd5b60018260000160008373ffffffffffffffffffffffffffffffffffffffff1673ffffffffffffffffffffffffffffffffffffffff16815260200190815260200160002060006101000a81548160ff0219169083151502179055505050565b60008073ffffffffffffffffffffffffffffffffffffffff168273ffffffffffffffffffffffffffffffffffffffff16141561019957600080fd5b8260000160008373ffffffffffffffffffffffffffffffffffffffff1673ffffffffffffffffffffffffffffffffffffffff16815260200190815260200160002060009054906101000a900460ff16905092915050565b60006101fd601583610276565b915061020882610287565b602082019050919050565b6000610220601a83610276565b915061022b826102b0565b602082019050919050565b6000602082019050818103600083015261024f816101f0565b9050919050565b6000602082019050818103600083015261026f81610213565b9050919050565b600082825260208201905092915050565b7f63616e6e6f742061646420626c61636b20686f6c650000000000000000000000600082015250565b7f6163636f756e74206d757374206e6f74206861766520726f6c65000000000000600082015250565b610655806102e86000396000f3fe608060405234801561001057600080fd5b50600436106100415760003560e01c8063834ff73914610046578063ba5b810e14610076578063ce74da4f14610092575b600080fd5b610060600480360381019061005b91906103e5565b6100ae565b60405161006d9190610499565b60405180910390f35b610090600480360381019061008b91906103e5565b6100cb565b005b6100ac60048036038101906100a791906103e5565b61016d565b005b60006100c482600061032790919063ffffffff16565b9050919050565b6100d4336100ae565b610113576040517f08c379a000000000000000000000000000000000000000000000000000000000815260040161010a906104f4565b60405180910390fd5b61011c816103b9565b8073ffffffffffffffffffffffffffffffffffffffff167f2dc5af27f00486a48c2455869e7d6bb7d1564629e6bf6e5f5667c994bb2f9251426040516101629190610514565b60405180910390a250565b610176336100ae565b6101b5576040517f08c379a00000000000000000000000000000000000000000000000000000000081526004016101ac906104f4565b60405180910390fd5b6101be816103b9565b8073ffffffffffffffffffffffffffffffffffffffff167fa116f0ee5787718140c479c562d9adda97bee63979fc2e8a7bddb47948fce656426040516102049190610514565b60405180910390a250565b600073ffffffffffffffffffffffffffffffffffffffff168173ffffffffffffffffffffffffffffffffffffffff16141561027f576040517f08c379a0000000000000000000000000000000000000000000000000000000008152600401610276906104b4565b60405180910390fd5b6102898282610327565b156102c9576040517f08c379a00000000000000000000000000000000000000000000000000000000081526004016102c0906104d4565b60405180910390fd5b60018260000160008373ffffffffffffffffffffffffffffffffffffffff1673ffffffffffffffffffffffffffffffffffffffff16815260200190815260200160002060006101000a81548160ff0219169083151502179055505050565b60008073ffffffffffffffffffffffffffffffffffffffff168273ffffffffffffffffffffffffffffffffffffffff16141561036257600080fd5b8260000160008373ffffffffffffffffffffffffffffffffffffffff1673ffffffffffffffffffffffffffffffffffffffff16815260200190815260200160002060009054906101000a900460ff16905092915050565b6103cd81600061020f90919063ffffffff16565b50565b6000813590506103df81610608565b92915050565b6000602082840312156103fb576103fa610588565b5b6000610409848285016103d0565b91505092915050565b61041b81610552565b82525050565b600061042e60158361052f565b91506104398261058d565b602082019050919050565b6000610451601a8361052f565b915061045c826105b6565b602082019050919050565b6000610474600d8361052f565b915061047f826105df565b602082019050919050565b6104938161057e565b82525050565b60006020820190506104ae6000830184610412565b92915050565b600060208201905081810360008301526104cd81610421565b9050919050565b600060208201905081810360008301526104ed81610444565b9050919050565b6000602082019050818103600083015261050d81610467565b9050919050565b6000602082019050610529600083018461048a565b92915050565b600082825260208201905092915050565b600061054b8261055e565b9050919050565b60008115159050919050565b600073ffffffffffffffffffffffffffffffffffffffff82169050919050565b6000819050919050565b600080fd5b7f63616e6e6f742061646420626c61636b20686f6c650000000000000000000000600082015250565b7f6163636f756e74206d757374206e6f74206861766520726f6c65000000000000600082015250565b7f6f6e6c7920636f6e73756d657200000000000000000000000000000000000000600082015250565b61061181610540565b811461061c57600080fd5b5056fea2646970667358221220532efbf4b8449d4a40ce20db62d2691c06fbacae6d4332e0db6d46dddc1a211764736f6c63430008070033",
  "immutableReferences": {},
  "source": "// SPDX-License-Identifier: MIT\n\npragma solidity >=0.5.0 <0.9.0;\n\nimport './Roles.sol';\n\ncontract ConsumerRole {\n  using Roles for Roles.Role;\n  Roles.Role private consumers;\n\n  event ConsumerAdded(address indexed account, uint timestamp);\n  event ConsumerRemoved(address indexed account, uint timestamp);\n\n  modifier onlyConsumer() {\n    require(isConsumer(msg.sender), 'only consumer');\n    _;\n  }\n\n  function isConsumer(address _account) public view returns(bool) {\n    return consumers.hasRole(_account);\n  }\n\n\n  constructor() {\n    _addConsumer(msg.sender);\n  }\n\n  function _addConsumer(address _account) internal {\n    consumers.add(_account);\n  }\n\n  function enableConsumer(address _account) public onlyConsumer {\n    _addConsumer(_account);\n    emit ConsumerAdded(_account, block.timestamp);\n  }\n\n  function _revokeConsumer(address _account) internal {\n    consumers.remove(_account);\n\n  }\n\n  function revokeConsumer(address _account) public onlyConsumer {\n    _addConsumer(_account);\n    emit ConsumerRemoved(_account, block.timestamp);\n  }\n\n}",
  "sourcePath": "/home/sprtd/Desktop/Udacity/lesson-4-supply-chain/supply-chain-dapp/contracts/AccessControl/ConsumerRole.sol",
  "compiler": {
    "name": "solc",
    "version": "0.8.7+commit.e28d00a7.Emscripten.clang"
  },
  "schemaVersion": "3.4.3",
  "updatedAt": "2021-09-26T16:45:04.878Z",
  "devdoc": {
    "kind": "dev",
    "methods": {},
    "version": 1
  },
  "userdoc": {
    "kind": "user",
    "methods": {},
    "version": 1
  }
}