{
  "contractName": "DistributorRole",
  "abi": [
    {
      "inputs": [],
      "stateMutability": "nonpayable",
      "type": "constructor"
    },
    {
      "anonymous": false,
      "inputs": [
        {
          "indexed": true,
          "internalType": "address",
          "name": "account",
          "type": "address"
        },
        {
          "indexed": false,
          "internalType": "uint256",
          "name": "timestamp",
          "type": "uint256"
        }
      ],
      "name": "DistributorAdded",
      "type": "event"
    },
    {
      "anonymous": false,
      "inputs": [
        {
          "indexed": true,
          "internalType": "address",
          "name": "account",
          "type": "address"
        },
        {
          "indexed": false,
          "internalType": "uint256",
          "name": "timestamp",
          "type": "uint256"
        }
      ],
      "name": "DistributorRemoved",
      "type": "event"
    },
    {
      "inputs": [
        {
          "internalType": "address",
          "name": "_account",
          "type": "address"
        }
      ],
      "name": "isDistributor",
      "outputs": [
        {
          "internalType": "bool",
          "name": "",
          "type": "bool"
        }
      ],
      "stateMutability": "view",
      "type": "function"
    },
    {
      "inputs": [
        {
          "internalType": "address",
          "name": "_account",
          "type": "address"
        }
      ],
      "name": "enableDistributor",
      "outputs": [],
      "stateMutability": "nonpayable",
      "type": "function"
    },
    {
      "inputs": [
        {
          "internalType": "address",
          "name": "_account",
          "type": "address"
        }
      ],
      "name": "revokeDistributor",
      "outputs": [],
      "stateMutability": "nonpayable",
      "type": "function"
    }
  ],
  "bytecode": "0x608060405234801561001057600080fd5b506100203361002560201b60201c565b6102d9565b61003d81600061004060201b61020f1790919060201c565b50565b600073ffffffffffffffffffffffffffffffffffffffff168173ffffffffffffffffffffffffffffffffffffffff1614156100b0576040517f08c379a00000000000000000000000000000000000000000000000000000000081526004016100a790610236565b60405180910390fd5b6100c0828261015e60201b60201c565b15610100576040517f08c379a00000000000000000000000000000000000000000000000000000000081526004016100f790610256565b60405180910390fd5b60018260000160008373ffffffffffffffffffffffffffffffffffffffff1673ffffffffffffffffffffffffffffffffffffffff16815260200190815260200160002060006101000a81548160ff0219169083151502179055505050565b60008073ffffffffffffffffffffffffffffffffffffffff168273ffffffffffffffffffffffffffffffffffffffff16141561019957600080fd5b8260000160008373ffffffffffffffffffffffffffffffffffffffff1673ffffffffffffffffffffffffffffffffffffffff16815260200190815260200160002060009054906101000a900460ff16905092915050565b60006101fd601583610276565b915061020882610287565b602082019050919050565b6000610220601a83610276565b915061022b826102b0565b602082019050919050565b6000602082019050818103600083015261024f816101f0565b9050919050565b6000602082019050818103600083015261026f81610213565b9050919050565b600082825260208201905092915050565b7f63616e6e6f742061646420626c61636b20686f6c650000000000000000000000600082015250565b7f6163636f756e74206d757374206e6f74206861766520726f6c65000000000000600082015250565b61085b806102e86000396000f3fe608060405234801561001057600080fd5b50600436106100415760003560e01c8063120b93d3146100465780632e82c8df146100625780638f0c86fa1461007e575b600080fd5b610060600480360381019061005b9190610513565b6100ae565b005b61007c60048036038101906100779190610513565b610150565b005b61009860048036038101906100939190610513565b6101f2565b6040516100a5919061060d565b60405180910390f35b6100b7336101f2565b6100f6576040517f08c379a00000000000000000000000000000000000000000000000000000000081526004016100ed90610648565b60405180910390fd5b6100ff81610327565b8073ffffffffffffffffffffffffffffffffffffffff167ff28935f327f4434c20e8813ace0dfcb049d6130be725d67822b976e7400834154260405161014591906106c8565b60405180910390a250565b610159336101f2565b610198576040517f08c379a000000000000000000000000000000000000000000000000000000000815260040161018f90610648565b60405180910390fd5b6101a18161033e565b8073ffffffffffffffffffffffffffffffffffffffff167ff209bf3b81ed4e2181de330b8bbc0f4e03affd810121a1105d03a22f71f23b15426040516101e791906106c8565b60405180910390a250565b600061020882600061035590919063ffffffff16565b9050919050565b600073ffffffffffffffffffffffffffffffffffffffff168173ffffffffffffffffffffffffffffffffffffffff16141561027f576040517f08c379a000000000000000000000000000000000000000000000000000000000815260040161027690610628565b60405180910390fd5b6102898282610355565b156102c9576040517f08c379a00000000000000000000000000000000000000000000000000000000081526004016102c090610668565b60405180910390fd5b60018260000160008373ffffffffffffffffffffffffffffffffffffffff1673ffffffffffffffffffffffffffffffffffffffff16815260200190815260200160002060006101000a81548160ff0219169083151502179055505050565b61033b8160006103e790919063ffffffff16565b50565b61035281600061020f90919063ffffffff16565b50565b60008073ffffffffffffffffffffffffffffffffffffffff168273ffffffffffffffffffffffffffffffffffffffff16141561039057600080fd5b8260000160008373ffffffffffffffffffffffffffffffffffffffff1673ffffffffffffffffffffffffffffffffffffffff16815260200190815260200160002060009054906101000a900460ff16905092915050565b600073ffffffffffffffffffffffffffffffffffffffff168173ffffffffffffffffffffffffffffffffffffffff161415610457576040517f08c379a000000000000000000000000000000000000000000000000000000000815260040161044e90610688565b60405180910390fd5b6104618282610355565b6104a0576040517f08c379a0000000000000000000000000000000000000000000000000000000008152600401610497906106a8565b60405180910390fd5b60008260000160008373ffffffffffffffffffffffffffffffffffffffff1673ffffffffffffffffffffffffffffffffffffffff16815260200190815260200160002060006101000a81548160ff0219169083151502179055505050565b60008135905061050d8161080e565b92915050565b6000602082840312156105295761052861073c565b5b6000610537848285016104fe565b91505092915050565b61054981610706565b82525050565b600061055c6015836106e3565b915061056782610741565b602082019050919050565b600061057f6018836106e3565b915061058a8261076a565b602082019050919050565b60006105a2601a836106e3565b91506105ad82610793565b602082019050919050565b60006105c5601c836106e3565b91506105d0826107bc565b602082019050919050565b60006105e86016836106e3565b91506105f3826107e5565b602082019050919050565b61060781610732565b82525050565b60006020820190506106226000830184610540565b92915050565b600060208201905081810360008301526106418161054f565b9050919050565b6000602082019050818103600083015261066181610572565b9050919050565b6000602082019050818103600083015261068181610595565b9050919050565b600060208201905081810360008301526106a1816105b8565b9050919050565b600060208201905081810360008301526106c1816105db565b9050919050565b60006020820190506106dd60008301846105fe565b92915050565b600082825260208201905092915050565b60006106ff82610712565b9050919050565b60008115159050919050565b600073ffffffffffffffffffffffffffffffffffffffff82169050919050565b6000819050919050565b600080fd5b7f63616e6e6f742061646420626c61636b20686f6c650000000000000000000000600082015250565b7f756e617574686f72697a6564206469737472696275746f720000000000000000600082015250565b7f6163636f756e74206d757374206e6f74206861766520726f6c65000000000000600082015250565b7f616464726573732063616e6e6f7420626520626c61636b20686f6c6500000000600082015250565b7f61646472657373206d757374206861766520726f6c6500000000000000000000600082015250565b610817816106f4565b811461082257600080fd5b5056fea2646970667358221220f21abd637ce49c796d1857f094901e4281f1c001a35044411eb6184efddae72364736f6c63430008070033",
  "immutableReferences": {},
  "source": "// SPDX-License-Identifier: MIT\n\npragma solidity >=0.5.0 <0.9.0;\n\nimport './Roles.sol';\n\n\ncontract DistributorRole {\n  using Roles for Roles.Role;\n  Roles.Role private distributors;\n\n  event DistributorAdded(address indexed account, uint timestamp);\n  event DistributorRemoved(address indexed account, uint timestamp);\n\n  modifier onlyDistributor() {\n    require(isDistributor(msg.sender), 'unauthorized distributor');\n    _;\n  }\n\n  constructor() {\n    _addDistributor(msg.sender);\n  }\n\n\n  function isDistributor(address _account) public view returns(bool) {\n    return distributors.hasRole(_account);\n  }\n\n  function _addDistributor(address _account) internal {\n    distributors.add(_account);\n\n  }\n\n  function enableDistributor(address _account) public onlyDistributor {\n    _addDistributor(_account);\n    emit DistributorAdded(_account, block.timestamp);\n  }\n\n  function _revokeDistributor(address _account) internal {\n    distributors.remove(_account);\n  }\n\n  function revokeDistributor(address _account) public onlyDistributor {\n    _revokeDistributor(_account);\n    emit DistributorRemoved(_account, block.timestamp);\n  }\n}",
  "sourcePath": "/home/sprtd/Desktop/Udacity/lesson-4-supply-chain/supply-chain-dapp/contracts/AccessControl/DistributorRole.sol",
  "compiler": {
    "name": "solc",
    "version": "0.8.7+commit.e28d00a7.Emscripten.clang"
  },
  "schemaVersion": "3.4.3",
  "updatedAt": "2021-09-26T16:45:04.898Z",
  "devdoc": {
    "kind": "dev",
    "methods": {},
    "version": 1
  },
  "userdoc": {
    "kind": "user",
    "methods": {},
    "version": 1
  }
}