{
  "contractName": "FarmerRole",
  "abi": [
    {
      "inputs": [],
      "stateMutability": "nonpayable",
      "type": "constructor"
    },
    {
      "anonymous": false,
      "inputs": [
        {
          "indexed": true,
          "internalType": "address",
          "name": "account",
          "type": "address"
        }
      ],
      "name": "FarmerAdded",
      "type": "event"
    },
    {
      "anonymous": false,
      "inputs": [
        {
          "indexed": true,
          "internalType": "address",
          "name": "account",
          "type": "address"
        }
      ],
      "name": "FarmerRemoved",
      "type": "event"
    },
    {
      "inputs": [
        {
          "internalType": "address",
          "name": "_account",
          "type": "address"
        }
      ],
      "name": "isFarmer",
      "outputs": [
        {
          "internalType": "bool",
          "name": "",
          "type": "bool"
        }
      ],
      "stateMutability": "view",
      "type": "function"
    },
    {
      "inputs": [
        {
          "internalType": "address",
          "name": "_account",
          "type": "address"
        }
      ],
      "name": "addFarmer",
      "outputs": [],
      "stateMutability": "nonpayable",
      "type": "function"
    },
    {
      "inputs": [
        {
          "internalType": "address",
          "name": "_account",
          "type": "address"
        }
      ],
      "name": "removeFarmer",
      "outputs": [],
      "stateMutability": "nonpayable",
      "type": "function"
    }
  ],
  "bytecode": "0x608060405234801561001057600080fd5b506100203361002560201b60201c565b61031c565b61003d81600061008360201b6101731790919060201c565b8073ffffffffffffffffffffffffffffffffffffffff167f2e0ded4123377a3c2bc9a26f1717655a129e2f20752924d42e730ec89c83dbd060405160405180910390a250565b600073ffffffffffffffffffffffffffffffffffffffff168173ffffffffffffffffffffffffffffffffffffffff1614156100f3576040517f08c379a00000000000000000000000000000000000000000000000000000000081526004016100ea90610279565b60405180910390fd5b61010382826101a160201b60201c565b15610143576040517f08c379a000000000000000000000000000000000000000000000000000000000815260040161013a90610299565b60405180910390fd5b60018260000160008373ffffffffffffffffffffffffffffffffffffffff1673ffffffffffffffffffffffffffffffffffffffff16815260200190815260200160002060006101000a81548160ff0219169083151502179055505050565b60008073ffffffffffffffffffffffffffffffffffffffff168273ffffffffffffffffffffffffffffffffffffffff1614156101dc57600080fd5b8260000160008373ffffffffffffffffffffffffffffffffffffffff1673ffffffffffffffffffffffffffffffffffffffff16815260200190815260200160002060009054906101000a900460ff16905092915050565b60006102406015836102b9565b915061024b826102ca565b602082019050919050565b6000610263601a836102b9565b915061026e826102f3565b602082019050919050565b6000602082019050818103600083015261029281610233565b9050919050565b600060208201905081810360008301526102b281610256565b9050919050565b600082825260208201905092915050565b7f63616e6e6f742061646420626c61636b20686f6c650000000000000000000000600082015250565b7f6163636f756e74206d757374206e6f74206861766520726f6c65000000000000600082015250565b6108118061032b6000396000f3fe608060405234801561001057600080fd5b50600436106100415760003560e01c806380c3f96d14610046578063b942906914610062578063e6bf3fdc14610092575b600080fd5b610060600480360381019061005b91906104fd565b6100ae565b005b61007c600480360381019061007791906104fd565b610102565b60405161008991906105e8565b60405180910390f35b6100ac60048036038101906100a791906104fd565b61011f565b005b6100b733610102565b6100f6576040517f08c379a00000000000000000000000000000000000000000000000000000000081526004016100ed90610663565b60405180910390fd5b6100ff8161028b565b50565b60006101188260006102e590919063ffffffff16565b9050919050565b61012833610102565b610167576040517f08c379a000000000000000000000000000000000000000000000000000000000815260040161015e90610663565b60405180910390fd5b61017081610377565b50565b600073ffffffffffffffffffffffffffffffffffffffff168173ffffffffffffffffffffffffffffffffffffffff1614156101e3576040517f08c379a00000000000000000000000000000000000000000000000000000000081526004016101da90610603565b60405180910390fd5b6101ed82826102e5565b1561022d576040517f08c379a000000000000000000000000000000000000000000000000000000000815260040161022490610623565b60405180910390fd5b60018260000160008373ffffffffffffffffffffffffffffffffffffffff1673ffffffffffffffffffffffffffffffffffffffff16815260200190815260200160002060006101000a81548160ff0219169083151502179055505050565b61029f81600061017390919063ffffffff16565b8073ffffffffffffffffffffffffffffffffffffffff167f2e0ded4123377a3c2bc9a26f1717655a129e2f20752924d42e730ec89c83dbd060405160405180910390a250565b60008073ffffffffffffffffffffffffffffffffffffffff168273ffffffffffffffffffffffffffffffffffffffff16141561032057600080fd5b8260000160008373ffffffffffffffffffffffffffffffffffffffff1673ffffffffffffffffffffffffffffffffffffffff16815260200190815260200160002060009054906101000a900460ff16905092915050565b61038b8160006103d190919063ffffffff16565b8073ffffffffffffffffffffffffffffffffffffffff167fa5e0f060af304ab17dd418c7927e3da3ae7868189bf387aee09ab179ccc572f260405160405180910390a250565b600073ffffffffffffffffffffffffffffffffffffffff168173ffffffffffffffffffffffffffffffffffffffff161415610441576040517f08c379a000000000000000000000000000000000000000000000000000000000815260040161043890610643565b60405180910390fd5b61044b82826102e5565b61048a576040517f08c379a000000000000000000000000000000000000000000000000000000000815260040161048190610683565b60405180910390fd5b60008260000160008373ffffffffffffffffffffffffffffffffffffffff1673ffffffffffffffffffffffffffffffffffffffff16815260200190815260200160002060006101000a81548160ff0219169083151502179055505050565b6000813590506104f7816107c4565b92915050565b600060208284031215610513576105126106f2565b5b6000610521848285016104e8565b91505092915050565b610533816106c6565b82525050565b60006105466015836106a3565b9150610551826106f7565b602082019050919050565b6000610569601a836106a3565b915061057482610720565b602082019050919050565b600061058c601c836106a3565b915061059782610749565b602082019050919050565b60006105af601d836106a3565b91506105ba82610772565b602082019050919050565b60006105d26016836106a3565b91506105dd8261079b565b602082019050919050565b60006020820190506105fd600083018461052a565b92915050565b6000602082019050818103600083015261061c81610539565b9050919050565b6000602082019050818103600083015261063c8161055c565b9050919050565b6000602082019050818103600083015261065c8161057f565b9050919050565b6000602082019050818103600083015261067c816105a2565b9050919050565b6000602082019050818103600083015261069c816105c5565b9050919050565b600082825260208201905092915050565b60006106bf826106d2565b9050919050565b60008115159050919050565b600073ffffffffffffffffffffffffffffffffffffffff82169050919050565b600080fd5b7f63616e6e6f742061646420626c61636b20686f6c650000000000000000000000600082015250565b7f6163636f756e74206d757374206e6f74206861766520726f6c65000000000000600082015250565b7f616464726573732063616e6e6f7420626520626c61636b20686f6c6500000000600082015250565b7f6f6e6c79206661726d65722063616e2063616c6c2066756e6374696f6e000000600082015250565b7f61646472657373206d757374206861766520726f6c6500000000000000000000600082015250565b6107cd816106b4565b81146107d857600080fd5b5056fea26469706673582212202451bf2c3a678e5d4958d354b70ffe42690a4195884ae60bdad4a18edac1b14464736f6c63430008070033",
  "immutableReferences": {},
  "source": "// SPDX-License-Identifier: MIT\n\npragma solidity >=0.5.0 <0.9.0;\n\nimport './Roles.sol';\n\ncontract FarmerRole {\n  using Roles for Roles.Role;\n  Roles.Role private farmers;\n\n  event FarmerAdded(address indexed account);\n  event FarmerRemoved(address indexed account);\n\n  modifier onlyFarmer() {\n    require(isFarmer(msg.sender), 'only farmer can call function');\n    _;\n  }\n\n  constructor() {\n    _addFarmer(msg.sender);\n  }\n\n  function isFarmer(address _account) public view returns(bool) {\n    return farmers.hasRole(_account);\n\n  }\n\n  function _addFarmer(address _account) internal {\n    farmers.add(_account);\n    emit FarmerAdded(_account);\n  }\n\n  function addFarmer(address _account) external onlyFarmer {\n    _addFarmer(_account);\n  }\n\n  function _revokeFarmer(address _account) internal {\n    farmers.remove(_account);\n    emit FarmerRemoved(_account);\n  }\n\n  function removeFarmer(address _account) external onlyFarmer {\n    _revokeFarmer(_account);\n\n  }\n\n  \n\n\n}\n\n\n",
  "sourcePath": "/home/sprtd/Desktop/Udacity/lesson-4-supply-chain/supply-chain-dapp/contracts/AccessControl/FarmerRole.sol",
  "compiler": {
    "name": "solc",
    "version": "0.8.7+commit.e28d00a7.Emscripten.clang"
  },
  "schemaVersion": "3.4.3",
  "updatedAt": "2021-09-26T08:10:27.161Z",
  "devdoc": {
    "kind": "dev",
    "methods": {},
    "version": 1
  },
  "userdoc": {
    "kind": "user",
    "methods": {},
    "version": 1
  }
}