{
  "contractName": "Ownable",
  "abi": [
    {
      "inputs": [],
      "stateMutability": "nonpayable",
      "type": "constructor"
    },
    {
      "anonymous": false,
      "inputs": [
        {
          "indexed": true,
          "internalType": "address",
          "name": "oldOwner",
          "type": "address"
        },
        {
          "indexed": true,
          "internalType": "address",
          "name": "newOwner",
          "type": "address"
        }
      ],
      "name": "TransferOwnership",
      "type": "event"
    },
    {
      "inputs": [],
      "name": "ownerAccount",
      "outputs": [
        {
          "internalType": "address",
          "name": "",
          "type": "address"
        }
      ],
      "stateMutability": "view",
      "type": "function"
    },
    {
      "inputs": [],
      "name": "isOwner",
      "outputs": [
        {
          "internalType": "bool",
          "name": "",
          "type": "bool"
        }
      ],
      "stateMutability": "view",
      "type": "function"
    },
    {
      "inputs": [
        {
          "internalType": "address",
          "name": "_newOwner",
          "type": "address"
        }
      ],
      "name": "transferOwnership",
      "outputs": [],
      "stateMutability": "nonpayable",
      "type": "function"
    },
    {
      "inputs": [],
      "name": "renounceOwnership",
      "outputs": [],
      "stateMutability": "nonpayable",
      "type": "function"
    }
  ],
  "bytecode": "0x608060405234801561001057600080fd5b50336000806101000a81548173ffffffffffffffffffffffffffffffffffffffff021916908373ffffffffffffffffffffffffffffffffffffffff16021790555060008054906101000a900473ffffffffffffffffffffffffffffffffffffffff1673ffffffffffffffffffffffffffffffffffffffff16600073ffffffffffffffffffffffffffffffffffffffff167f5c486528ec3e3f0ea91181cff8116f02bfa350e03b8b6f12e00765adbb5af85c60405160405180910390a36105c7806100db6000396000f3fe608060405234801561001057600080fd5b506004361061004c5760003560e01c8063715018a6146100515780638f32d59b1461005b578063ea47cb2414610079578063f2fde38b14610097575b600080fd5b6100596100b3565b005b6100636101b8565b6040516100709190610479565b60405180910390f35b61008161020f565b60405161008e919061045e565b60405180910390f35b6100b160048036038101906100ac91906103cd565b610238565b005b6100bb6101b8565b6100fa576040517f08c379a00000000000000000000000000000000000000000000000000000000081526004016100f1906104b4565b60405180910390fd5b600073ffffffffffffffffffffffffffffffffffffffff1660008054906101000a900473ffffffffffffffffffffffffffffffffffffffff1673ffffffffffffffffffffffffffffffffffffffff167f5c486528ec3e3f0ea91181cff8116f02bfa350e03b8b6f12e00765adbb5af85c60405160405180910390a360008060006101000a81548173ffffffffffffffffffffffffffffffffffffffff021916908373ffffffffffffffffffffffffffffffffffffffff160217905550565b60008060009054906101000a900473ffffffffffffffffffffffffffffffffffffffff1673ffffffffffffffffffffffffffffffffffffffff163373ffffffffffffffffffffffffffffffffffffffff1614905090565b60008060009054906101000a900473ffffffffffffffffffffffffffffffffffffffff16905090565b6102406101b8565b61027f576040517f08c379a0000000000000000000000000000000000000000000000000000000008152600401610276906104b4565b60405180910390fd5b6102888161028b565b50565b600073ffffffffffffffffffffffffffffffffffffffff168173ffffffffffffffffffffffffffffffffffffffff1614156102fb576040517f08c379a00000000000000000000000000000000000000000000000000000000081526004016102f290610494565b60405180910390fd5b806000806101000a81548173ffffffffffffffffffffffffffffffffffffffff021916908373ffffffffffffffffffffffffffffffffffffffff1602179055508073ffffffffffffffffffffffffffffffffffffffff1660008054906101000a900473ffffffffffffffffffffffffffffffffffffffff1673ffffffffffffffffffffffffffffffffffffffff167f5c486528ec3e3f0ea91181cff8116f02bfa350e03b8b6f12e00765adbb5af85c60405160405180910390a350565b6000813590506103c78161057a565b92915050565b6000602082840312156103e3576103e2610523565b5b60006103f1848285016103b8565b91505092915050565b610403816104e5565b82525050565b610412816104f7565b82525050565b60006104256019836104d4565b915061043082610528565b602082019050919050565b6000610448601c836104d4565b915061045382610551565b602082019050919050565b600060208201905061047360008301846103fa565b92915050565b600060208201905061048e6000830184610409565b92915050565b600060208201905081810360008301526104ad81610418565b9050919050565b600060208201905081810360008301526104cd8161043b565b9050919050565b600082825260208201905092915050565b60006104f082610503565b9050919050565b60008115159050919050565b600073ffffffffffffffffffffffffffffffffffffffff82169050919050565b600080fd5b7f63616e6e6f74207472616e7366657220746f2061646472203000000000000000600082015250565b7f6f6e6c79206f776e65722063616e2063616c6c2066756e6374696f6e00000000600082015250565b610583816104e5565b811461058e57600080fd5b5056fea264697066735822122080c06f2422b6b2f6585d22fde229645ad2bee8aa59833dd5a3decbf3d30a7e1964736f6c63430008070033",
  "immutableReferences": {},
  "source": "// SPDX-License-Identifier: MIT\n\npragma solidity >=0.5.0 <0.9.0;\n\ncontract Ownable {\n  address private origOwner;\n  event TransferOwnership(address indexed oldOwner, address indexed newOwner);\n\n  \n  constructor() {\n    origOwner = msg.sender;\n    emit TransferOwnership(address(0), origOwner);\n\n  }\n\n  function ownerAccount() public view returns(address) {\n    return origOwner;\n\n  }\n\n  function isOwner() public view returns(bool) {\n    return msg.sender == origOwner;\n  }\n  \n  modifier onlyOwner() {\n    require(isOwner(), 'only owner can call function');\n    _;\n  }\n  \n\n  function _transferOwnership(address newOwner_) internal {\n    require(newOwner_ != address(0), 'cannot transfer to addr 0');\n    origOwner = newOwner_;\n    emit TransferOwnership(origOwner, newOwner_);\n  }\n\n\n  function transferOwnership(address _newOwner) public onlyOwner {\n    _transferOwnership(_newOwner);\n  }\n\n\n  function renounceOwnership() public onlyOwner {\n    emit TransferOwnership(origOwner, address(0));\n    origOwner = address(0);\n  }\n\n\n}",
  "sourcePath": "/home/sprtd/Desktop/Udacity/lesson-4-supply-chain/supply-chain-dapp/contracts/Core/Ownable.sol",
  "compiler": {
    "name": "solc",
    "version": "0.8.7+commit.e28d00a7.Emscripten.clang"
  },
  "schemaVersion": "3.4.3",
  "updatedAt": "2021-09-26T16:45:05.017Z",
  "devdoc": {
    "kind": "dev",
    "methods": {},
    "version": 1
  },
  "userdoc": {
    "kind": "user",
    "methods": {},
    "version": 1
  }
}