{
  "contractName": "RetailerRole",
  "abi": [
    {
      "inputs": [],
      "stateMutability": "nonpayable",
      "type": "constructor"
    },
    {
      "anonymous": false,
      "inputs": [
        {
          "indexed": true,
          "internalType": "address",
          "name": "account",
          "type": "address"
        },
        {
          "indexed": false,
          "internalType": "uint256",
          "name": "timestamp",
          "type": "uint256"
        }
      ],
      "name": "RetailerAdded",
      "type": "event"
    },
    {
      "anonymous": false,
      "inputs": [
        {
          "indexed": true,
          "internalType": "address",
          "name": "account",
          "type": "address"
        },
        {
          "indexed": false,
          "internalType": "uint256",
          "name": "timestamp",
          "type": "uint256"
        }
      ],
      "name": "RetailerRemoved",
      "type": "event"
    },
    {
      "inputs": [
        {
          "internalType": "address",
          "name": "_account",
          "type": "address"
        }
      ],
      "name": "isRetailer",
      "outputs": [
        {
          "internalType": "bool",
          "name": "",
          "type": "bool"
        }
      ],
      "stateMutability": "view",
      "type": "function"
    },
    {
      "inputs": [
        {
          "internalType": "address",
          "name": "_account",
          "type": "address"
        }
      ],
      "name": "enableRetailer",
      "outputs": [],
      "stateMutability": "nonpayable",
      "type": "function"
    },
    {
      "inputs": [
        {
          "internalType": "address",
          "name": "_account",
          "type": "address"
        }
      ],
      "name": "revokeRetailer",
      "outputs": [],
      "stateMutability": "nonpayable",
      "type": "function"
    }
  ],
  "bytecode": "0x608060405234801561001057600080fd5b506100203361002560201b60201c565b6102d9565b61003d81600061004060201b61020f1790919060201c565b50565b600073ffffffffffffffffffffffffffffffffffffffff168173ffffffffffffffffffffffffffffffffffffffff1614156100b0576040517f08c379a00000000000000000000000000000000000000000000000000000000081526004016100a790610236565b60405180910390fd5b6100c0828261015e60201b60201c565b15610100576040517f08c379a00000000000000000000000000000000000000000000000000000000081526004016100f790610256565b60405180910390fd5b60018260000160008373ffffffffffffffffffffffffffffffffffffffff1673ffffffffffffffffffffffffffffffffffffffff16815260200190815260200160002060006101000a81548160ff0219169083151502179055505050565b60008073ffffffffffffffffffffffffffffffffffffffff168273ffffffffffffffffffffffffffffffffffffffff16141561019957600080fd5b8260000160008373ffffffffffffffffffffffffffffffffffffffff1673ffffffffffffffffffffffffffffffffffffffff16815260200190815260200160002060009054906101000a900460ff16905092915050565b60006101fd601583610276565b915061020882610287565b602082019050919050565b6000610220601a83610276565b915061022b826102b0565b602082019050919050565b6000602082019050818103600083015261024f816101f0565b9050919050565b6000602082019050818103600083015261026f81610213565b9050919050565b600082825260208201905092915050565b7f63616e6e6f742061646420626c61636b20686f6c650000000000000000000000600082015250565b7f6163636f756e74206d757374206e6f74206861766520726f6c65000000000000600082015250565b61085b806102e86000396000f3fe608060405234801561001057600080fd5b50600436106100415760003560e01c80635da09b8814610046578063782eb93414610076578063b08f1b9414610092575b600080fd5b610060600480360381019061005b9190610513565b6100ae565b60405161006d919061060d565b60405180910390f35b610090600480360381019061008b9190610513565b6100cb565b005b6100ac60048036038101906100a79190610513565b61016d565b005b60006100c482600061032790919063ffffffff16565b9050919050565b6100d4336100ae565b610113576040517f08c379a000000000000000000000000000000000000000000000000000000000815260040161010a90610688565b60405180910390fd5b61011c816103b9565b8073ffffffffffffffffffffffffffffffffffffffff167fb49a2607f5cd7c8d54ec1f8e42d16760331e56f591f66fa693520b340c0de81d4260405161016291906106c8565b60405180910390a250565b610176336100ae565b6101b5576040517f08c379a00000000000000000000000000000000000000000000000000000000081526004016101ac90610688565b60405180910390fd5b6101be816103d0565b8073ffffffffffffffffffffffffffffffffffffffff167fcb18fc111c75b6f4a69df31c6626bc026f243e9e1991247eb711ac0b8a6ce97f4260405161020491906106c8565b60405180910390a250565b600073ffffffffffffffffffffffffffffffffffffffff168173ffffffffffffffffffffffffffffffffffffffff16141561027f576040517f08c379a000000000000000000000000000000000000000000000000000000000815260040161027690610628565b60405180910390fd5b6102898282610327565b156102c9576040517f08c379a00000000000000000000000000000000000000000000000000000000081526004016102c090610648565b60405180910390fd5b60018260000160008373ffffffffffffffffffffffffffffffffffffffff1673ffffffffffffffffffffffffffffffffffffffff16815260200190815260200160002060006101000a81548160ff0219169083151502179055505050565b60008073ffffffffffffffffffffffffffffffffffffffff168273ffffffffffffffffffffffffffffffffffffffff16141561036257600080fd5b8260000160008373ffffffffffffffffffffffffffffffffffffffff1673ffffffffffffffffffffffffffffffffffffffff16815260200190815260200160002060009054906101000a900460ff16905092915050565b6103cd8160006103e790919063ffffffff16565b50565b6103e481600061020f90919063ffffffff16565b50565b600073ffffffffffffffffffffffffffffffffffffffff168173ffffffffffffffffffffffffffffffffffffffff161415610457576040517f08c379a000000000000000000000000000000000000000000000000000000000815260040161044e90610668565b60405180910390fd5b6104618282610327565b6104a0576040517f08c379a0000000000000000000000000000000000000000000000000000000008152600401610497906106a8565b60405180910390fd5b60008260000160008373ffffffffffffffffffffffffffffffffffffffff1673ffffffffffffffffffffffffffffffffffffffff16815260200190815260200160002060006101000a81548160ff0219169083151502179055505050565b60008135905061050d8161080e565b92915050565b6000602082840312156105295761052861073c565b5b6000610537848285016104fe565b91505092915050565b61054981610706565b82525050565b600061055c6015836106e3565b915061056782610741565b602082019050919050565b600061057f601a836106e3565b915061058a8261076a565b602082019050919050565b60006105a2601c836106e3565b91506105ad82610793565b602082019050919050565b60006105c56015836106e3565b91506105d0826107bc565b602082019050919050565b60006105e86016836106e3565b91506105f3826107e5565b602082019050919050565b61060781610732565b82525050565b60006020820190506106226000830184610540565b92915050565b600060208201905081810360008301526106418161054f565b9050919050565b6000602082019050818103600083015261066181610572565b9050919050565b6000602082019050818103600083015261068181610595565b9050919050565b600060208201905081810360008301526106a1816105b8565b9050919050565b600060208201905081810360008301526106c1816105db565b9050919050565b60006020820190506106dd60008301846105fe565b92915050565b600082825260208201905092915050565b60006106ff82610712565b9050919050565b60008115159050919050565b600073ffffffffffffffffffffffffffffffffffffffff82169050919050565b6000819050919050565b600080fd5b7f63616e6e6f742061646420626c61636b20686f6c650000000000000000000000600082015250565b7f6163636f756e74206d757374206e6f74206861766520726f6c65000000000000600082015250565b7f616464726573732063616e6e6f7420626520626c61636b20686f6c6500000000600082015250565b7f756e617574686f72697a65642072657461696c65720000000000000000000000600082015250565b7f61646472657373206d757374206861766520726f6c6500000000000000000000600082015250565b610817816106f4565b811461082257600080fd5b5056fea2646970667358221220b5ddf77119ed56f0a119c5ceb510f1665c951c01307e8fb387c9209a6454b99f64736f6c63430008070033",
  "immutableReferences": {},
  "source": "// SPDX-License-Identifier: MIT\n\npragma solidity >=0.5.0 <0.9.0;\n\nimport './Roles.sol';\n\n\ncontract RetailerRole {\n  using Roles for Roles.Role;\n  Roles.Role private retailers;\n\n  event RetailerAdded(address indexed account, uint timestamp);\n  event RetailerRemoved(address indexed account, uint timestamp);\n\n\n  modifier onlyRetailer() {\n    require(isRetailer(msg.sender), 'unauthorized retailer');\n    _;\n\n  }\n\n  constructor() {\n    _addRetailer(msg.sender);\n  }\n\n  function isRetailer(address _account) public view returns(bool) {\n    return retailers.hasRole(_account);\n  }\n\n  function _addRetailer(address _account) internal {\n    retailers.add(_account);\n  }\n\n  function enableRetailer(address _account) public onlyRetailer {\n    _addRetailer(_account);\n    emit RetailerAdded(_account, block.timestamp);\n\n  }\n\n  function _revokeRetailer(address _account) internal {\n    retailers.remove(_account);\n  }\n\n  function revokeRetailer(address _account) public onlyRetailer {\n    _revokeRetailer(_account);\n    emit RetailerRemoved(_account, block.timestamp);\n  }\n  \n\n}",
  "sourcePath": "/home/sprtd/Desktop/Udacity/lesson-4-supply-chain/supply-chain-dapp/contracts/AccessControl/RetailerRole.sol",
  "compiler": {
    "name": "solc",
    "version": "0.8.7+commit.e28d00a7.Emscripten.clang"
  },
  "schemaVersion": "3.4.3",
  "updatedAt": "2021-09-26T16:45:04.913Z",
  "devdoc": {
    "kind": "dev",
    "methods": {},
    "version": 1
  },
  "userdoc": {
    "kind": "user",
    "methods": {},
    "version": 1
  }
}