{
  "contractName": "SupplyChain",
  "abi": [
    {
      "inputs": [],
      "stateMutability": "nonpayable",
      "type": "constructor"
    },
    {
      "anonymous": false,
      "inputs": [
        {
          "indexed": true,
          "internalType": "address",
          "name": "account",
          "type": "address"
        },
        {
          "indexed": false,
          "internalType": "uint256",
          "name": "timestamp",
          "type": "uint256"
        }
      ],
      "name": "ConsumerAdded",
      "type": "event"
    },
    {
      "anonymous": false,
      "inputs": [
        {
          "indexed": true,
          "internalType": "address",
          "name": "account",
          "type": "address"
        },
        {
          "indexed": false,
          "internalType": "uint256",
          "name": "timestamp",
          "type": "uint256"
        }
      ],
      "name": "ConsumerRemoved",
      "type": "event"
    },
    {
      "anonymous": false,
      "inputs": [
        {
          "indexed": true,
          "internalType": "address",
          "name": "account",
          "type": "address"
        },
        {
          "indexed": false,
          "internalType": "uint256",
          "name": "timestamp",
          "type": "uint256"
        }
      ],
      "name": "DistributorAdded",
      "type": "event"
    },
    {
      "anonymous": false,
      "inputs": [
        {
          "indexed": true,
          "internalType": "address",
          "name": "account",
          "type": "address"
        },
        {
          "indexed": false,
          "internalType": "uint256",
          "name": "timestamp",
          "type": "uint256"
        }
      ],
      "name": "DistributorRemoved",
      "type": "event"
    },
    {
      "anonymous": false,
      "inputs": [
        {
          "indexed": true,
          "internalType": "address",
          "name": "account",
          "type": "address"
        }
      ],
      "name": "FarmerAdded",
      "type": "event"
    },
    {
      "anonymous": false,
      "inputs": [
        {
          "indexed": true,
          "internalType": "address",
          "name": "account",
          "type": "address"
        }
      ],
      "name": "FarmerRemoved",
      "type": "event"
    },
    {
      "anonymous": false,
      "inputs": [
        {
          "indexed": false,
          "internalType": "uint256",
          "name": "sku",
          "type": "uint256"
        },
        {
          "indexed": false,
          "internalType": "uint256",
          "name": "timestamp",
          "type": "uint256"
        }
      ],
      "name": "ItemHarvested",
      "type": "event"
    },
    {
      "anonymous": false,
      "inputs": [
        {
          "indexed": false,
          "internalType": "uint256",
          "name": "sku",
          "type": "uint256"
        },
        {
          "indexed": false,
          "internalType": "uint256",
          "name": "timestamp",
          "type": "uint256"
        }
      ],
      "name": "ItemPacked",
      "type": "event"
    },
    {
      "anonymous": false,
      "inputs": [
        {
          "indexed": false,
          "internalType": "uint256",
          "name": "sku",
          "type": "uint256"
        },
        {
          "indexed": false,
          "internalType": "uint256",
          "name": "timestamp",
          "type": "uint256"
        }
      ],
      "name": "ItemProcessed",
      "type": "event"
    },
    {
      "anonymous": false,
      "inputs": [
        {
          "indexed": false,
          "internalType": "uint256",
          "name": "sku",
          "type": "uint256"
        },
        {
          "indexed": false,
          "internalType": "uint256",
          "name": "timestamp",
          "type": "uint256"
        }
      ],
      "name": "ItemPurchased",
      "type": "event"
    },
    {
      "anonymous": false,
      "inputs": [
        {
          "indexed": false,
          "internalType": "uint256",
          "name": "sku",
          "type": "uint256"
        },
        {
          "indexed": false,
          "internalType": "uint256",
          "name": "timestamp",
          "type": "uint256"
        }
      ],
      "name": "ItemPutUpForSale",
      "type": "event"
    },
    {
      "anonymous": false,
      "inputs": [
        {
          "indexed": false,
          "internalType": "uint256",
          "name": "sku",
          "type": "uint256"
        },
        {
          "indexed": false,
          "internalType": "uint256",
          "name": "timestamp",
          "type": "uint256"
        }
      ],
      "name": "ItemReceived",
      "type": "event"
    },
    {
      "anonymous": false,
      "inputs": [
        {
          "indexed": false,
          "internalType": "uint256",
          "name": "sku",
          "type": "uint256"
        },
        {
          "indexed": false,
          "internalType": "uint256",
          "name": "timestamp",
          "type": "uint256"
        }
      ],
      "name": "ItemShipped",
      "type": "event"
    },
    {
      "anonymous": false,
      "inputs": [
        {
          "indexed": false,
          "internalType": "uint256",
          "name": "sku",
          "type": "uint256"
        },
        {
          "indexed": false,
          "internalType": "uint256",
          "name": "timestamp",
          "type": "uint256"
        }
      ],
      "name": "ItemSold",
      "type": "event"
    },
    {
      "anonymous": false,
      "inputs": [
        {
          "indexed": true,
          "internalType": "address",
          "name": "account",
          "type": "address"
        },
        {
          "indexed": false,
          "internalType": "uint256",
          "name": "timestamp",
          "type": "uint256"
        }
      ],
      "name": "RetailerAdded",
      "type": "event"
    },
    {
      "anonymous": false,
      "inputs": [
        {
          "indexed": true,
          "internalType": "address",
          "name": "account",
          "type": "address"
        },
        {
          "indexed": false,
          "internalType": "uint256",
          "name": "timestamp",
          "type": "uint256"
        }
      ],
      "name": "RetailerRemoved",
      "type": "event"
    },
    {
      "anonymous": false,
      "inputs": [
        {
          "indexed": true,
          "internalType": "address",
          "name": "oldOwner",
          "type": "address"
        },
        {
          "indexed": true,
          "internalType": "address",
          "name": "newOwner",
          "type": "address"
        }
      ],
      "name": "TransferOwnership",
      "type": "event"
    },
    {
      "inputs": [
        {
          "internalType": "address",
          "name": "_account",
          "type": "address"
        }
      ],
      "name": "addFarmer",
      "outputs": [],
      "stateMutability": "nonpayable",
      "type": "function"
    },
    {
      "inputs": [
        {
          "internalType": "address",
          "name": "_account",
          "type": "address"
        }
      ],
      "name": "enableConsumer",
      "outputs": [],
      "stateMutability": "nonpayable",
      "type": "function"
    },
    {
      "inputs": [
        {
          "internalType": "address",
          "name": "_account",
          "type": "address"
        }
      ],
      "name": "enableDistributor",
      "outputs": [],
      "stateMutability": "nonpayable",
      "type": "function"
    },
    {
      "inputs": [
        {
          "internalType": "address",
          "name": "_account",
          "type": "address"
        }
      ],
      "name": "enableRetailer",
      "outputs": [],
      "stateMutability": "nonpayable",
      "type": "function"
    },
    {
      "inputs": [
        {
          "internalType": "address",
          "name": "_account",
          "type": "address"
        }
      ],
      "name": "isConsumer",
      "outputs": [
        {
          "internalType": "bool",
          "name": "",
          "type": "bool"
        }
      ],
      "stateMutability": "view",
      "type": "function",
      "constant": true
    },
    {
      "inputs": [
        {
          "internalType": "address",
          "name": "_account",
          "type": "address"
        }
      ],
      "name": "isDistributor",
      "outputs": [
        {
          "internalType": "bool",
          "name": "",
          "type": "bool"
        }
      ],
      "stateMutability": "view",
      "type": "function",
      "constant": true
    },
    {
      "inputs": [
        {
          "internalType": "address",
          "name": "_account",
          "type": "address"
        }
      ],
      "name": "isFarmer",
      "outputs": [
        {
          "internalType": "bool",
          "name": "",
          "type": "bool"
        }
      ],
      "stateMutability": "view",
      "type": "function",
      "constant": true
    },
    {
      "inputs": [],
      "name": "isOwner",
      "outputs": [
        {
          "internalType": "bool",
          "name": "",
          "type": "bool"
        }
      ],
      "stateMutability": "view",
      "type": "function",
      "constant": true
    },
    {
      "inputs": [
        {
          "internalType": "address",
          "name": "_account",
          "type": "address"
        }
      ],
      "name": "isRetailer",
      "outputs": [
        {
          "internalType": "bool",
          "name": "",
          "type": "bool"
        }
      ],
      "stateMutability": "view",
      "type": "function",
      "constant": true
    },
    {
      "inputs": [],
      "name": "ownerAccount",
      "outputs": [
        {
          "internalType": "address",
          "name": "",
          "type": "address"
        }
      ],
      "stateMutability": "view",
      "type": "function",
      "constant": true
    },
    {
      "inputs": [
        {
          "internalType": "address",
          "name": "_account",
          "type": "address"
        }
      ],
      "name": "removeFarmer",
      "outputs": [],
      "stateMutability": "nonpayable",
      "type": "function"
    },
    {
      "inputs": [],
      "name": "renounceOwnership",
      "outputs": [],
      "stateMutability": "nonpayable",
      "type": "function"
    },
    {
      "inputs": [
        {
          "internalType": "address",
          "name": "_account",
          "type": "address"
        }
      ],
      "name": "revokeConsumer",
      "outputs": [],
      "stateMutability": "nonpayable",
      "type": "function"
    },
    {
      "inputs": [
        {
          "internalType": "address",
          "name": "_account",
          "type": "address"
        }
      ],
      "name": "revokeDistributor",
      "outputs": [],
      "stateMutability": "nonpayable",
      "type": "function"
    },
    {
      "inputs": [
        {
          "internalType": "address",
          "name": "_account",
          "type": "address"
        }
      ],
      "name": "revokeRetailer",
      "outputs": [],
      "stateMutability": "nonpayable",
      "type": "function"
    },
    {
      "inputs": [
        {
          "internalType": "address",
          "name": "_newOwner",
          "type": "address"
        }
      ],
      "name": "transferOwnership",
      "outputs": [],
      "stateMutability": "nonpayable",
      "type": "function"
    },
    {
      "inputs": [],
      "name": "kill",
      "outputs": [],
      "stateMutability": "nonpayable",
      "type": "function"
    },
    {
      "inputs": [
        {
          "internalType": "uint256",
          "name": "_sku",
          "type": "uint256"
        },
        {
          "internalType": "address",
          "name": "_account",
          "type": "address"
        }
      ],
      "name": "addFarmerAccount",
      "outputs": [],
      "stateMutability": "nonpayable",
      "type": "function"
    },
    {
      "inputs": [
        {
          "internalType": "address",
          "name": "_account",
          "type": "address"
        }
      ],
      "name": "transferOwnershipToAccount",
      "outputs": [],
      "stateMutability": "nonpayable",
      "type": "function"
    },
    {
      "inputs": [
        {
          "internalType": "uint256",
          "name": "_sku",
          "type": "uint256"
        },
        {
          "internalType": "address",
          "name": "_account",
          "type": "address"
        }
      ],
      "name": "transferOwnershipToDistributor",
      "outputs": [],
      "stateMutability": "nonpayable",
      "type": "function"
    },
    {
      "inputs": [
        {
          "internalType": "uint256",
          "name": "_sku",
          "type": "uint256"
        },
        {
          "internalType": "address",
          "name": "_account",
          "type": "address"
        }
      ],
      "name": "enableRetailerAccount",
      "outputs": [],
      "stateMutability": "nonpayable",
      "type": "function"
    },
    {
      "inputs": [
        {
          "internalType": "uint256",
          "name": "_sku",
          "type": "uint256"
        },
        {
          "internalType": "address",
          "name": "_account",
          "type": "address"
        }
      ],
      "name": "enableConsumerAccount",
      "outputs": [],
      "stateMutability": "nonpayable",
      "type": "function"
    },
    {
      "inputs": [
        {
          "internalType": "uint256",
          "name": "_sku",
          "type": "uint256"
        },
        {
          "internalType": "address",
          "name": "_account",
          "type": "address"
        }
      ],
      "name": "transferOwnershipToRetailer",
      "outputs": [],
      "stateMutability": "nonpayable",
      "type": "function"
    },
    {
      "inputs": [
        {
          "internalType": "uint256",
          "name": "_sku",
          "type": "uint256"
        },
        {
          "internalType": "address",
          "name": "_account",
          "type": "address"
        }
      ],
      "name": "transferOwnershipToConsumer",
      "outputs": [],
      "stateMutability": "nonpayable",
      "type": "function"
    },
    {
      "inputs": [
        {
          "internalType": "string",
          "name": "_originFarmName",
          "type": "string"
        },
        {
          "internalType": "string",
          "name": "_originFarmInfo",
          "type": "string"
        },
        {
          "internalType": "string",
          "name": "_originFarmLatitude",
          "type": "string"
        },
        {
          "internalType": "string",
          "name": "_originFarmLongitude",
          "type": "string"
        },
        {
          "internalType": "string",
          "name": "_productNotes",
          "type": "string"
        }
      ],
      "name": "harvestItem",
      "outputs": [],
      "stateMutability": "nonpayable",
      "type": "function"
    },
    {
      "inputs": [
        {
          "internalType": "uint256",
          "name": "_sku",
          "type": "uint256"
        }
      ],
      "name": "processItem",
      "outputs": [],
      "stateMutability": "nonpayable",
      "type": "function"
    },
    {
      "inputs": [
        {
          "internalType": "uint256",
          "name": "_sku",
          "type": "uint256"
        }
      ],
      "name": "packItem",
      "outputs": [],
      "stateMutability": "nonpayable",
      "type": "function"
    },
    {
      "inputs": [
        {
          "internalType": "uint256",
          "name": "_sku",
          "type": "uint256"
        },
        {
          "internalType": "uint256",
          "name": "_price",
          "type": "uint256"
        }
      ],
      "name": "putUpItemForSale",
      "outputs": [],
      "stateMutability": "nonpayable",
      "type": "function"
    },
    {
      "inputs": [
        {
          "internalType": "uint256",
          "name": "_sku",
          "type": "uint256"
        }
      ],
      "name": "buyItem",
      "outputs": [],
      "stateMutability": "payable",
      "type": "function",
      "payable": true
    },
    {
      "inputs": [
        {
          "internalType": "uint256",
          "name": "_sku",
          "type": "uint256"
        }
      ],
      "name": "shipItem",
      "outputs": [],
      "stateMutability": "nonpayable",
      "type": "function"
    },
    {
      "inputs": [
        {
          "internalType": "uint256",
          "name": "_sku",
          "type": "uint256"
        }
      ],
      "name": "receiveItem",
      "outputs": [],
      "stateMutability": "nonpayable",
      "type": "function"
    },
    {
      "inputs": [
        {
          "internalType": "uint256",
          "name": "_sku",
          "type": "uint256"
        }
      ],
      "name": "purchaseItem",
      "outputs": [],
      "stateMutability": "nonpayable",
      "type": "function"
    },
    {
      "inputs": [
        {
          "internalType": "uint256",
          "name": "_sku",
          "type": "uint256"
        }
      ],
      "name": "getItemStatus",
      "outputs": [
        {
          "internalType": "string",
          "name": "status",
          "type": "string"
        }
      ],
      "stateMutability": "view",
      "type": "function",
      "constant": true
    },
    {
      "inputs": [],
      "name": "getTotalItems",
      "outputs": [
        {
          "internalType": "uint256",
          "name": "",
          "type": "uint256"
        }
      ],
      "stateMutability": "view",
      "type": "function",
      "constant": true
    },
    {
      "inputs": [],
      "name": "getOwner",
      "outputs": [
        {
          "internalType": "address",
          "name": "",
          "type": "address"
        }
      ],
      "stateMutability": "view",
      "type": "function",
      "constant": true
    },
    {
      "inputs": [
        {
          "internalType": "uint256",
          "name": "_sku",
          "type": "uint256"
        }
      ],
      "name": "getItemOwner",
      "outputs": [
        {
          "internalType": "address",
          "name": "",
          "type": "address"
        }
      ],
      "stateMutability": "view",
      "type": "function",
      "constant": true
    },
    {
      "inputs": [
        {
          "internalType": "uint256",
          "name": "_upc",
          "type": "uint256"
        }
      ],
      "name": "fetchFarmDetails",
      "outputs": [
        {
          "internalType": "uint256",
          "name": "itemSKU",
          "type": "uint256"
        },
        {
          "internalType": "address",
          "name": "ownerID",
          "type": "address"
        },
        {
          "internalType": "address",
          "name": "originFarmerID",
          "type": "address"
        },
        {
          "internalType": "string",
          "name": "originFarmInfo",
          "type": "string"
        },
        {
          "internalType": "string",
          "name": "originFarmName",
          "type": "string"
        },
        {
          "internalType": "string",
          "name": "originFarmLatitude",
          "type": "string"
        },
        {
          "internalType": "string",
          "name": "originFarmLongitude",
          "type": "string"
        }
      ],
      "stateMutability": "view",
      "type": "function",
      "constant": true
    },
    {
      "inputs": [
        {
          "internalType": "uint256",
          "name": "_upc",
          "type": "uint256"
        }
      ],
      "name": "fetchProductDetails",
      "outputs": [
        {
          "internalType": "uint256",
          "name": "itemSKU",
          "type": "uint256"
        },
        {
          "internalType": "uint256",
          "name": "itemUPC",
          "type": "uint256"
        },
        {
          "internalType": "uint256",
          "name": "productID",
          "type": "uint256"
        },
        {
          "internalType": "string",
          "name": "productNotes",
          "type": "string"
        },
        {
          "internalType": "uint256",
          "name": "productPrice",
          "type": "uint256"
        },
        {
          "internalType": "string",
          "name": "status",
          "type": "string"
        },
        {
          "internalType": "address",
          "name": "distributorID",
          "type": "address"
        },
        {
          "internalType": "address",
          "name": "retailerID",
          "type": "address"
        },
        {
          "internalType": "address",
          "name": "consumerID",
          "type": "address"
        }
      ],
      "stateMutability": "view",
      "type": "function",
      "constant": true
    }
  ],
  "bytecode": "0x60806040523480156200001157600080fd5b506200002333620001ac60201b60201c565b62000034336200020d60201b60201c565b62000045336200022b60201b60201c565b62000056336200024960201b60201c565b33600460006101000a81548173ffffffffffffffffffffffffffffffffffffffff021916908373ffffffffffffffffffffffffffffffffffffffff160217905550600460009054906101000a900473ffffffffffffffffffffffffffffffffffffffff1673ffffffffffffffffffffffffffffffffffffffff16600073ffffffffffffffffffffffffffffffffffffffff167f5c486528ec3e3f0ea91181cff8116f02bfa350e03b8b6f12e00765adbb5af85c60405160405180910390a333600560006101000a81548173ffffffffffffffffffffffffffffffffffffffff021916908373ffffffffffffffffffffffffffffffffffffffff16021790555033600660006101000a81548173ffffffffffffffffffffffffffffffffffffffff021916908373ffffffffffffffffffffffffffffffffffffffff1602179055506000600881905550600060078190555062000515565b620001c78160006200026760201b620037fe1790919060201c565b8073ffffffffffffffffffffffffffffffffffffffff167f2e0ded4123377a3c2bc9a26f1717655a129e2f20752924d42e730ec89c83dbd060405160405180910390a250565b620002288160016200026760201b620037fe1790919060201c565b50565b620002468160026200026760201b620037fe1790919060201c565b50565b620002648160036200026760201b620037fe1790919060201c565b50565b600073ffffffffffffffffffffffffffffffffffffffff168173ffffffffffffffffffffffffffffffffffffffff161415620002da576040517f08c379a0000000000000000000000000000000000000000000000000000000008152600401620002d1906200046e565b60405180910390fd5b620002ec82826200038d60201b60201c565b156200032f576040517f08c379a0000000000000000000000000000000000000000000000000000000008152600401620003269062000490565b60405180910390fd5b60018260000160008373ffffffffffffffffffffffffffffffffffffffff1673ffffffffffffffffffffffffffffffffffffffff16815260200190815260200160002060006101000a81548160ff0219169083151502179055505050565b60008073ffffffffffffffffffffffffffffffffffffffff168273ffffffffffffffffffffffffffffffffffffffff161415620003c957600080fd5b8260000160008373ffffffffffffffffffffffffffffffffffffffff1673ffffffffffffffffffffffffffffffffffffffff16815260200190815260200160002060009054906101000a900460ff16905092915050565b60006200042f601583620004b2565b91506200043c82620004c3565b602082019050919050565b600062000456601a83620004b2565b91506200046382620004ec565b602082019050919050565b60006020820190508181036000830152620004898162000420565b9050919050565b60006020820190508181036000830152620004ab8162000447565b9050919050565b600082825260208201905092915050565b7f63616e6e6f742061646420626c61636b20686f6c650000000000000000000000600082015250565b7f6163636f756e74206d757374206e6f74206861766520726f6c65000000000000600082015250565b61508280620005256000396000f3fe6080604052600436106102255760003560e01c8063893d20e811610123578063ba5b810e116100ab578063e7fb74c71161006f578063e7fb74c714610803578063ea47cb241461081f578063f2fde38b1461084a578063f30fc48014610873578063f61c899a1461089c57610225565b8063ba5b810e14610736578063ce74da4f1461075f578063d38ea5bf14610788578063d4cfc85c146107b1578063e6bf3fdc146107da57610225565b8063a26be999116100f2578063a26be99914610639578063aa39734b14610662578063aeee8db5146106a7578063b08f1b94146106d0578063b9429069146106f957610225565b8063893d20e81461057d5780638f0c86fa146105a85780638f32d59b146105e557806399cbf0c81461061057610225565b806349dae766116101b1578063715018a611610175578063715018a6146104ae578063722a3a51146104c5578063782eb934146104ee57806380c3f96d14610517578063834ff7391461054057610225565b806349dae766146103cd5780634f6e864f146103f657806351268c9b1461041f5780635da09b881461044857806360cc933b1461048557610225565b8063310aac69116101f8578063310aac69146102e25780633129bc881461030d57806338254e5b146103365780633bae4de81461037957806341c0e1b5146103b657610225565b80630a852a701461022a578063120b93d3146102535780631d1440fd1461027c5780632e82c8df146102b9575b600080fd5b34801561023657600080fd5b50610251600480360381019061024c9190613fb4565b6108c5565b005b34801561025f57600080fd5b5061027a60048036038101906102759190613e53565b610a26565b005b34801561028857600080fd5b506102a3600480360381019061029e9190613f87565b610ac8565b6040516102b0919061443d565b60405180910390f35b3480156102c557600080fd5b506102e060048036038101906102db9190613e53565b610b4d565b005b3480156102ee57600080fd5b506102f7610bef565b60405161030491906147b5565b60405180910390f35b34801561031957600080fd5b50610334600480360381019061032f9190613e80565b610bf9565b005b34801561034257600080fd5b5061035d60048036038101906103589190613f87565b61104e565b60405161037097969594939291906147d0565b60405180910390f35b34801561038557600080fd5b506103a0600480360381019061039b9190613f87565b6113c2565b6040516103ad9190614473565b60405180910390f35b3480156103c257600080fd5b506103cb6116c3565b005b3480156103d957600080fd5b506103f460048036038101906103ef9190613f87565b611756565b005b34801561040257600080fd5b5061041d60048036038101906104189190613fb4565b6118ea565b005b34801561042b57600080fd5b5061044660048036038101906104419190613fb4565b611a4b565b005b34801561045457600080fd5b5061046f600480360381019061046a9190613e53565b611c49565b60405161047c9190614458565b60405180910390f35b34801561049157600080fd5b506104ac60048036038101906104a79190613fb4565b611c66565b005b3480156104ba57600080fd5b506104c3611dc7565b005b3480156104d157600080fd5b506104ec60048036038101906104e79190613fb4565b611ecf565b005b3480156104fa57600080fd5b5061051560048036038101906105109190613e53565b612038565b005b34801561052357600080fd5b5061053e60048036038101906105399190613e53565b6120da565b005b34801561054c57600080fd5b5061056760048036038101906105629190613e53565b61212e565b6040516105749190614458565b60405180910390f35b34801561058957600080fd5b5061059261214b565b60405161059f919061443d565b60405180910390f35b3480156105b457600080fd5b506105cf60048036038101906105ca9190613e53565b612175565b6040516105dc9190614458565b60405180910390f35b3480156105f157600080fd5b506105fa612192565b6040516106079190614458565b60405180910390f35b34801561061c57600080fd5b5061063760048036038101906106329190613e53565b6121ea565b005b34801561064557600080fd5b50610660600480360381019061065b9190613f87565b6122f0565b005b34801561066e57600080fd5b5061068960048036038101906106849190613f87565b61243f565b60405161069e99989796959493929190614884565b60405180910390f35b3480156106b357600080fd5b506106ce60048036038101906106c99190613fb4565b612906565b005b3480156106dc57600080fd5b506106f760048036038101906106f29190613e53565b612abc565b005b34801561070557600080fd5b50610720600480360381019061071b9190613e53565b612b5e565b60405161072d9190614458565b60405180910390f35b34801561074257600080fd5b5061075d60048036038101906107589190613e53565b612b7b565b005b34801561076b57600080fd5b5061078660048036038101906107819190613e53565b612c1d565b005b34801561079457600080fd5b506107af60048036038101906107aa9190613f87565b612cbf565b005b3480156107bd57600080fd5b506107d860048036038101906107d39190613ff4565b612e18565b005b3480156107e657600080fd5b5061080160048036038101906107fc9190613e53565b612f83565b005b61081d60048036038101906108189190613f87565b612fd7565b005b34801561082b57600080fd5b50610834613458565b604051610841919061443d565b60405180910390f35b34801561085657600080fd5b50610871600480360381019061086c9190613e53565b613482565b005b34801561087f57600080fd5b5061089a60048036038101906108959190613f87565b6134d5565b005b3480156108a857600080fd5b506108c360048036038101906108be9190613f87565b613669565b005b6108ce33611c49565b61090d576040517f08c379a000000000000000000000000000000000000000000000000000000000815260040161090490614735565b60405180910390fd5b8160008111610951576040517f08c379a000000000000000000000000000000000000000000000000000000000815260040161094890614495565b60405180910390fd5b81600073ffffffffffffffffffffffffffffffffffffffff168173ffffffffffffffffffffffffffffffffffffffff1614156109c2576040517f08c379a00000000000000000000000000000000000000000000000000000000081526004016109b990614755565b60405180910390fd5b6109cb83612b7b565b8260096000868152602001908152602001600020600d0160006101000a81548173ffffffffffffffffffffffffffffffffffffffff021916908373ffffffffffffffffffffffffffffffffffffffff16021790555050505050565b610a2f33612175565b610a6e576040517f08c379a0000000000000000000000000000000000000000000000000000000008152600401610a6590614575565b60405180910390fd5b610a7781613916565b8073ffffffffffffffffffffffffffffffffffffffff167ff28935f327f4434c20e8813ace0dfcb049d6130be725d67822b976e74008341542604051610abd91906147b5565b60405180910390a250565b60008160008111610b0e576040517f08c379a0000000000000000000000000000000000000000000000000000000008152600401610b0590614495565b60405180910390fd5b6009600084815260200190815260200160002060020160009054906101000a900473ffffffffffffffffffffffffffffffffffffffff16915050919050565b610b5633612175565b610b95576040517f08c379a0000000000000000000000000000000000000000000000000000000008152600401610b8c90614575565b60405180910390fd5b610b9e8161392d565b8073ffffffffffffffffffffffffffffffffffffffff167ff209bf3b81ed4e2181de330b8bbc0f4e03affd810121a1105d03a22f71f23b1542604051610be491906147b5565b60405180910390a250565b6000600854905090565b610c0233612b5e565b610c41576040517f08c379a0000000000000000000000000000000000000000000000000000000008152600401610c3890614695565b60405180910390fd5b600160086000828254610c54919061499c565b925050819055506000600854600754610c6d919061499c565b9050604051806101e0016040528060085481526020016008548152602001600660009054906101000a900473ffffffffffffffffffffffffffffffffffffffff1673ffffffffffffffffffffffffffffffffffffffff168152602001600660009054906101000a900473ffffffffffffffffffffffffffffffffffffffff1673ffffffffffffffffffffffffffffffffffffffff1681526020018781526020018681526020018581526020018481526020018281526020018381526020016000815260200160016008811115610d4657610d45614b42565b5b8152602001600073ffffffffffffffffffffffffffffffffffffffff168152602001600073ffffffffffffffffffffffffffffffffffffffff168152602001600073ffffffffffffffffffffffffffffffffffffffff16815250600960006008548152602001908152602001600020600082015181600001556020820151816001015560408201518160020160006101000a81548173ffffffffffffffffffffffffffffffffffffffff021916908373ffffffffffffffffffffffffffffffffffffffff16021790555060608201518160030160006101000a81548173ffffffffffffffffffffffffffffffffffffffff021916908373ffffffffffffffffffffffffffffffffffffffff1602179055506080820151816004019080519060200190610e73929190613d16565b5060a0820151816005019080519060200190610e90929190613d16565b5060c0820151816006019080519060200190610ead929190613d16565b5060e0820151816007019080519060200190610eca929190613d16565b506101008201518160080155610120820151816009019080519060200190610ef3929190613d16565b5061014082015181600a015561016082015181600b0160006101000a81548160ff02191690836008811115610f2b57610f2a614b42565b5b021790555061018082015181600b0160016101000a81548173ffffffffffffffffffffffffffffffffffffffff021916908373ffffffffffffffffffffffffffffffffffffffff1602179055506101a082015181600c0160006101000a81548173ffffffffffffffffffffffffffffffffffffffff021916908373ffffffffffffffffffffffffffffffffffffffff1602179055506101c082015181600d0160006101000a81548173ffffffffffffffffffffffffffffffffffffffff021916908373ffffffffffffffffffffffffffffffffffffffff1602179055509050507f70d1ac693f78a3a0eaea8ebee17a81420b04c3dd4da2c27b28eb93d8cf4fb1f46008544260405161103e92919061485b565b60405180910390a1505050505050565b60008060006060806060806000881161109c576040517f08c379a000000000000000000000000000000000000000000000000000000000815260040161109390614495565b60405180910390fd5b6009600089815260200190815260200160002060000154600960008a815260200190815260200160002060020160009054906101000a900473ffffffffffffffffffffffffffffffffffffffff16600960008b815260200190815260200160002060030160009054906101000a900473ffffffffffffffffffffffffffffffffffffffff16600960008c8152602001908152602001600020600501600960008d8152602001908152602001600020600401600960008e8152602001908152602001600020600601600960008f815260200190815260200160002060070183805461118590614ab0565b80601f01602080910402602001604051908101604052809291908181526020018280546111b190614ab0565b80156111fe5780601f106111d3576101008083540402835291602001916111fe565b820191906000526020600020905b8154815290600101906020018083116111e157829003601f168201915b5050505050935082805461121190614ab0565b80601f016020809104026020016040519081016040528092919081815260200182805461123d90614ab0565b801561128a5780601f1061125f5761010080835404028352916020019161128a565b820191906000526020600020905b81548152906001019060200180831161126d57829003601f168201915b5050505050925081805461129d90614ab0565b80601f01602080910402602001604051908101604052809291908181526020018280546112c990614ab0565b80156113165780601f106112eb57610100808354040283529160200191611316565b820191906000526020600020905b8154815290600101906020018083116112f957829003601f168201915b5050505050915080805461132990614ab0565b80601f016020809104026020016040519081016040528092919081815260200182805461135590614ab0565b80156113a25780601f10611377576101008083540402835291602001916113a2565b820191906000526020600020905b81548152906001019060200180831161138557829003601f168201915b505050505090509650965096509650965096509650919395979092949650565b60608160008111611408576040517f08c379a00000000000000000000000000000000000000000000000000000000081526004016113ff90614495565b60405180910390fd5b600060096000858152602001908152602001600020600b0160009054906101000a900460ff1660088111156114405761143f614b42565b5b90506000811415611488576040518060400160405280600a81526020017f556e61737369676e65640000000000000000000000000000000000000000000081525092506116bc565b60018114156114ce576040518060400160405280600981526020017f686172766573746564000000000000000000000000000000000000000000000081525092506116bb565b6002811415611514576040518060400160405280600981526020017f50726f636573736564000000000000000000000000000000000000000000000081525092506116ba565b600381141561155a576040518060400160405280600681526020017f5061636b6564000000000000000000000000000000000000000000000000000081525092506116b9565b60048114156115a0576040518060400160405280600881526020017f466f722053616c6500000000000000000000000000000000000000000000000081525092506116b8565b60058114156115e6576040518060400160405280600481526020017f536f6c640000000000000000000000000000000000000000000000000000000081525092506116b7565b600681141561162c576040518060400160405280600781526020017f536869707065640000000000000000000000000000000000000000000000000081525092506116b6565b6007811415611672576040518060400160405280600881526020017f526563656976656400000000000000000000000000000000000000000000000081525092506116b5565b60088114156116b4576040518060400160405280600981526020017f507572636861736564000000000000000000000000000000000000000000000081525092505b5b5b5b5b5b5b5b5b5050919050565b600660009054906101000a900473ffffffffffffffffffffffffffffffffffffffff1673ffffffffffffffffffffffffffffffffffffffff163373ffffffffffffffffffffffffffffffffffffffff16141561175457600660009054906101000a900473ffffffffffffffffffffffffffffffffffffffff1673ffffffffffffffffffffffffffffffffffffffff16ff5b565b806000811161179a576040517f08c379a000000000000000000000000000000000000000000000000000000000815260040161179190614495565b60405180910390fd5b81600160088111156117af576117ae614b42565b5b60096000838152602001908152602001600020600b0160009054906101000a900460ff1660088111156117e5576117e4614b42565b5b14611825576040517f08c379a000000000000000000000000000000000000000000000000000000000815260040161181c90614615565b60405180910390fd5b61182e33612b5e565b61186d576040517f08c379a000000000000000000000000000000000000000000000000000000000815260040161186490614695565b60405180910390fd5b600260096000858152602001908152602001600020600b0160006101000a81548160ff021916908360088111156118a7576118a6614b42565b5b02179055507ffb40dccf2b2eaa6adb424f8909690bdaa904a9c48c7be9af4a680e3c21c7366a83426040516118dd92919061485b565b60405180910390a1505050565b80600073ffffffffffffffffffffffffffffffffffffffff168173ffffffffffffffffffffffffffffffffffffffff16141561195b576040517f08c379a000000000000000000000000000000000000000000000000000000000815260040161195290614755565b60405180910390fd5b600060096000858152602001908152602001600020600b0160019054906101000a900473ffffffffffffffffffffffffffffffffffffffff1690508073ffffffffffffffffffffffffffffffffffffffff168373ffffffffffffffffffffffffffffffffffffffff1614611a04576040517f08c379a00000000000000000000000000000000000000000000000000000000081526004016119fb906144d5565b60405180910390fd5b80600660006101000a81548173ffffffffffffffffffffffffffffffffffffffff021916908373ffffffffffffffffffffffffffffffffffffffff16021790555050505050565b80600073ffffffffffffffffffffffffffffffffffffffff168173ffffffffffffffffffffffffffffffffffffffff161415611abc576040517f08c379a0000000000000000000000000000000000000000000000000000000008152600401611ab390614755565b60405180910390fd5b611ac533612175565b611b04576040517f08c379a0000000000000000000000000000000000000000000000000000000008152600401611afb90614575565b60405180910390fd5b600060096000858152602001908152602001600020600c0160009054906101000a900473ffffffffffffffffffffffffffffffffffffffff1690508073ffffffffffffffffffffffffffffffffffffffff168373ffffffffffffffffffffffffffffffffffffffff1614611bad576040517f08c379a0000000000000000000000000000000000000000000000000000000008152600401611ba490614635565b60405180910390fd5b80600660006101000a81548173ffffffffffffffffffffffffffffffffffffffff021916908373ffffffffffffffffffffffffffffffffffffffff160217905550806009600086815260200190815260200160002060020160006101000a81548173ffffffffffffffffffffffffffffffffffffffff021916908373ffffffffffffffffffffffffffffffffffffffff16021790555050505050565b6000611c5f82600261394490919063ffffffff16565b9050919050565b611c6f33612175565b611cae576040517f08c379a0000000000000000000000000000000000000000000000000000000008152600401611ca590614575565b60405180910390fd5b8160008111611cf2576040517f08c379a0000000000000000000000000000000000000000000000000000000008152600401611ce990614495565b60405180910390fd5b81600073ffffffffffffffffffffffffffffffffffffffff168173ffffffffffffffffffffffffffffffffffffffff161415611d63576040517f08c379a0000000000000000000000000000000000000000000000000000000008152600401611d5a90614755565b60405180910390fd5b611d6c83612abc565b8260096000868152602001908152602001600020600c0160006101000a81548173ffffffffffffffffffffffffffffffffffffffff021916908373ffffffffffffffffffffffffffffffffffffffff16021790555050505050565b611dcf612192565b611e0e576040517f08c379a0000000000000000000000000000000000000000000000000000000008152600401611e05906145f5565b60405180910390fd5b600073ffffffffffffffffffffffffffffffffffffffff16600460009054906101000a900473ffffffffffffffffffffffffffffffffffffffff1673ffffffffffffffffffffffffffffffffffffffff167f5c486528ec3e3f0ea91181cff8116f02bfa350e03b8b6f12e00765adbb5af85c60405160405180910390a36000600460006101000a81548173ffffffffffffffffffffffffffffffffffffffff021916908373ffffffffffffffffffffffffffffffffffffffff160217905550565b611ed7612192565b611f16576040517f08c379a0000000000000000000000000000000000000000000000000000000008152600401611f0d906145f5565b60405180910390fd5b8160008111611f5a576040517f08c379a0000000000000000000000000000000000000000000000000000000008152600401611f5190614495565b60405180910390fd5b81600073ffffffffffffffffffffffffffffffffffffffff168173ffffffffffffffffffffffffffffffffffffffff161415611fcb576040517f08c379a0000000000000000000000000000000000000000000000000000000008152600401611fc290614755565b60405180910390fd5b611fd4836139d6565b826009600086815260200190815260200160002060020160006101000a81548173ffffffffffffffffffffffffffffffffffffffff021916908373ffffffffffffffffffffffffffffffffffffffff160217905550612032836121ea565b50505050565b61204133611c49565b612080576040517f08c379a000000000000000000000000000000000000000000000000000000000815260040161207790614735565b60405180910390fd5b61208981613a30565b8073ffffffffffffffffffffffffffffffffffffffff167fb49a2607f5cd7c8d54ec1f8e42d16760331e56f591f66fa693520b340c0de81d426040516120cf91906147b5565b60405180910390a250565b6120e333612b5e565b612122576040517f08c379a000000000000000000000000000000000000000000000000000000000815260040161211990614695565b60405180910390fd5b61212b816139d6565b50565b600061214482600361394490919063ffffffff16565b9050919050565b6000600660009054906101000a900473ffffffffffffffffffffffffffffffffffffffff16905090565b600061218b82600161394490919063ffffffff16565b9050919050565b6000600460009054906101000a900473ffffffffffffffffffffffffffffffffffffffff1673ffffffffffffffffffffffffffffffffffffffff163373ffffffffffffffffffffffffffffffffffffffff1614905090565b6121f2612192565b612231576040517f08c379a0000000000000000000000000000000000000000000000000000000008152600401612228906145f5565b60405180910390fd5b80600073ffffffffffffffffffffffffffffffffffffffff168173ffffffffffffffffffffffffffffffffffffffff1614156122a2576040517f08c379a000000000000000000000000000000000000000000000000000000000815260040161229990614755565b60405180910390fd5b81600660006101000a81548173ffffffffffffffffffffffffffffffffffffffff021916908373ffffffffffffffffffffffffffffffffffffffff1602179055506122ec82613482565b5050565b806006600881111561230557612304614b42565b5b60096000838152602001908152602001600020600b0160009054906101000a900460ff16600881111561233b5761233a614b42565b5b1461237b576040517f08c379a000000000000000000000000000000000000000000000000000000000815260040161237290614675565b60405180910390fd5b61238433611c49565b6123c3576040517f08c379a00000000000000000000000000000000000000000000000000000000081526004016123ba90614735565b60405180910390fd5b600760096000848152602001908152602001600020600b0160006101000a81548160ff021916908360088111156123fd576123fc614b42565b5b02179055507fd1ed1d690ddb09d4a1401e852151f0053c8125566afbaf90bde81f2f6e2e51a5824260405161243392919061485b565b60405180910390a15050565b600080600060606000606060008060008960008111612493576040517f08c379a000000000000000000000000000000000000000000000000000000000815260040161248a90614495565b60405180910390fd5b600960008c8152602001908152602001600020600001549950600960008c8152602001908152602001600020600101549850600960008c8152602001908152602001600020600801549750600960008c815260200190815260200160002060090180546124ff90614ab0565b80601f016020809104026020016040519081016040528092919081815260200182805461252b90614ab0565b80156125785780601f1061254d57610100808354040283529160200191612578565b820191906000526020600020905b81548152906001019060200180831161255b57829003601f168201915b50505050509650600960008c8152602001908152602001600020600a015495506000600960008d8152602001908152602001600020600b0160009054906101000a900460ff1660088111156125d0576125cf614b42565b5b90506000811415612618576040518060400160405280600a81526020017f556e61737369676e656400000000000000000000000000000000000000000000815250955061284c565b600181141561265e576040518060400160405280600981526020017f4861727665737465640000000000000000000000000000000000000000000000815250955061284b565b60028114156126a4576040518060400160405280600981526020017f50726f6365737365640000000000000000000000000000000000000000000000815250955061284a565b60038114156126ea576040518060400160405280600681526020017f5061636b656400000000000000000000000000000000000000000000000000008152509550612849565b6004811415612730576040518060400160405280600881526020017f466f722053616c650000000000000000000000000000000000000000000000008152509550612848565b6005811415612776576040518060400160405280600481526020017f536f6c64000000000000000000000000000000000000000000000000000000008152509550612847565b60068114156127bc576040518060400160405280600781526020017f53686970706564000000000000000000000000000000000000000000000000008152509550612846565b6007811415612802576040518060400160405280600881526020017f52656365697665640000000000000000000000000000000000000000000000008152509550612845565b6008811415612844576040518060400160405280600981526020017f507572636861736564000000000000000000000000000000000000000000000081525095505b5b5b5b5b5b5b5b5b600960008d8152602001908152602001600020600b0160019054906101000a900473ffffffffffffffffffffffffffffffffffffffff169450600960008d8152602001908152602001600020600c0160009054906101000a900473ffffffffffffffffffffffffffffffffffffffff169350600960008d8152602001908152602001600020600d0160009054906101000a900473ffffffffffffffffffffffffffffffffffffffff16925050509193959799909294969850565b80600073ffffffffffffffffffffffffffffffffffffffff168173ffffffffffffffffffffffffffffffffffffffff161415612977576040517f08c379a000000000000000000000000000000000000000000000000000000000815260040161296e90614755565b60405180910390fd5b600060096000858152602001908152602001600020600d0160009054906101000a900473ffffffffffffffffffffffffffffffffffffffff1690508073ffffffffffffffffffffffffffffffffffffffff168373ffffffffffffffffffffffffffffffffffffffff1614612a20576040517f08c379a0000000000000000000000000000000000000000000000000000000008152600401612a17906145d5565b60405180910390fd5b80600660006101000a81548173ffffffffffffffffffffffffffffffffffffffff021916908373ffffffffffffffffffffffffffffffffffffffff160217905550806009600086815260200190815260200160002060020160006101000a81548173ffffffffffffffffffffffffffffffffffffffff021916908373ffffffffffffffffffffffffffffffffffffffff16021790555050505050565b612ac533611c49565b612b04576040517f08c379a0000000000000000000000000000000000000000000000000000000008152600401612afb90614735565b60405180910390fd5b612b0d81613a47565b8073ffffffffffffffffffffffffffffffffffffffff167fcb18fc111c75b6f4a69df31c6626bc026f243e9e1991247eb711ac0b8a6ce97f42604051612b5391906147b5565b60405180910390a250565b6000612b7482600061394490919063ffffffff16565b9050919050565b612b843361212e565b612bc3576040517f08c379a0000000000000000000000000000000000000000000000000000000008152600401612bba906146b5565b60405180910390fd5b612bcc81613a5e565b8073ffffffffffffffffffffffffffffffffffffffff167f2dc5af27f00486a48c2455869e7d6bb7d1564629e6bf6e5f5667c994bb2f925142604051612c1291906147b5565b60405180910390a250565b612c263361212e565b612c65576040517f08c379a0000000000000000000000000000000000000000000000000000000008152600401612c5c906146b5565b60405180910390fd5b612c6e81613a5e565b8073ffffffffffffffffffffffffffffffffffffffff167fa116f0ee5787718140c479c562d9adda97bee63979fc2e8a7bddb47948fce65642604051612cb491906147b5565b60405180910390a250565b8060076008811115612cd457612cd3614b42565b5b60096000838152602001908152602001600020600b0160009054906101000a900460ff166008811115612d0a57612d09614b42565b5b14612d4a576040517f08c379a0000000000000000000000000000000000000000000000000000000008152600401612d41906145b5565b60405180910390fd5b612d533361212e565b612d92576040517f08c379a0000000000000000000000000000000000000000000000000000000008152600401612d89906146b5565b60405180910390fd5b600860096000848152602001908152602001600020600b0160006101000a81548160ff02191690836008811115612dcc57612dcb614b42565b5b0217905550612ddb8233612906565b7f82979ce06c1fcf7a090707d8fc7123bfa6b69ba161402b0d6c52e052bd97d04b8242604051612e0c92919061485b565b60405180910390a15050565b8160036008811115612e2d57612e2c614b42565b5b60096000838152602001908152602001600020600b0160009054906101000a900460ff166008811115612e6357612e62614b42565b5b14612ea3576040517f08c379a0000000000000000000000000000000000000000000000000000000008152600401612e9a90614715565b60405180910390fd5b612eac33612b5e565b612eeb576040517f08c379a0000000000000000000000000000000000000000000000000000000008152600401612ee290614695565b60405180910390fd5b600460096000858152602001908152602001600020600b0160006101000a81548160ff02191690836008811115612f2557612f24614b42565b5b02179055508160096000858152602001908152602001600020600a01819055507fa2fb50a18f96558ad2cda2be8bb3fbbe96de5a05301a8b978a93241c5ca176118342604051612f7692919061485b565b60405180910390a1505050565b612f8c33612b5e565b612fcb576040517f08c379a0000000000000000000000000000000000000000000000000000000008152600401612fc290614695565b60405180910390fd5b612fd481613a75565b50565b8060046008811115612fec57612feb614b42565b5b60096000838152602001908152602001600020600b0160009054906101000a900460ff16600881111561302257613021614b42565b5b14613062576040517f08c379a0000000000000000000000000000000000000000000000000000000008152600401613059906146f5565b60405180910390fd5b60096000838152602001908152602001600020600a0154803410156130bc576040517f08c379a00000000000000000000000000000000000000000000000000000000081526004016130b390614515565b60405180910390fd5b826130c633612175565b613105576040517f08c379a00000000000000000000000000000000000000000000000000000000081526004016130fc90614575565b60405180910390fd5b60003390508060096000878152602001908152602001600020600b0160016101000a81548173ffffffffffffffffffffffffffffffffffffffff021916908373ffffffffffffffffffffffffffffffffffffffff16021790555060006009600087815260200190815260200160002060030160009054906101000a900473ffffffffffffffffffffffffffffffffffffffff169050600060096000888152602001908152602001600020600a01549050600560096000898152602001908152602001600020600b0160006101000a81548160ff021916908360088111156131ef576131ee614b42565b5b021790555060008273ffffffffffffffffffffffffffffffffffffffff168260405161321a90614428565b60006040518083038185875af1925050503d8060008114613257576040519150601f19603f3d011682016040523d82523d6000602084013e61325c565b606091505b50509050806132a0576040517f08c379a000000000000000000000000000000000000000000000000000000000815260040161329790614795565b60405180910390fd5b83600960008a815260200190815260200160002060020160006101000a81548173ffffffffffffffffffffffffffffffffffffffff021916908373ffffffffffffffffffffffffffffffffffffffff1602179055506132ff88856118ea565b7f49934bdc44c552b328ef963b26b06602ad0b22bb4d8d1a9f19cdde4e3a2539f6884260405161333092919061485b565b60405180910390a150505050600060096000838152602001908152602001600020600b0160019054906101000a900473ffffffffffffffffffffffffffffffffffffffff169050600060096000848152602001908152602001600020600a01549050600081346133a091906149f2565b905060008373ffffffffffffffffffffffffffffffffffffffff16826040516133c890614428565b60006040518083038185875af1925050503d8060008114613405576040519150601f19603f3d011682016040523d82523d6000602084013e61340a565b606091505b505090508061344e576040517f08c379a000000000000000000000000000000000000000000000000000000000815260040161344590614555565b60405180910390fd5b5050505050505050565b6000600460009054906101000a900473ffffffffffffffffffffffffffffffffffffffff16905090565b61348a612192565b6134c9576040517f08c379a00000000000000000000000000000000000000000000000000000000081526004016134c0906145f5565b60405180910390fd5b6134d281613acf565b50565b8060008111613519576040517f08c379a000000000000000000000000000000000000000000000000000000000815260040161351090614495565b60405180910390fd5b816002600881111561352e5761352d614b42565b5b60096000838152602001908152602001600020600b0160009054906101000a900460ff16600881111561356457613563614b42565b5b146135a4576040517f08c379a000000000000000000000000000000000000000000000000000000000815260040161359b906146d5565b60405180910390fd5b6135ad33612b5e565b6135ec576040517f08c379a00000000000000000000000000000000000000000000000000000000081526004016135e390614695565b60405180910390fd5b600360096000858152602001908152602001600020600b0160006101000a81548160ff0219169083600881111561362657613625614b42565b5b02179055507f23b44f376483940d5e7404f2ca25703e7ce9e126572db798d8447537c4252677834260405161365c92919061485b565b60405180910390a1505050565b806005600881111561367e5761367d614b42565b5b60096000838152602001908152602001600020600b0160009054906101000a900460ff1660088111156136b4576136b3614b42565b5b146136f4576040517f08c379a00000000000000000000000000000000000000000000000000000000081526004016136eb90614535565b60405180910390fd5b6136fd33612175565b61373c576040517f08c379a000000000000000000000000000000000000000000000000000000000815260040161373390614575565b60405180910390fd5b600060096000848152602001908152602001600020600c0160009054906101000a900473ffffffffffffffffffffffffffffffffffffffff169050600660096000858152602001908152602001600020600b0160006101000a81548160ff021916908360088111156137b1576137b0614b42565b5b02179055506137c08382611a4b565b7fde7a815277d8ac22acfbaa226b31f934a6d242bec543fdec19d7d84f38146ce683426040516137f192919061485b565b60405180910390a1505050565b600073ffffffffffffffffffffffffffffffffffffffff168173ffffffffffffffffffffffffffffffffffffffff16141561386e576040517f08c379a0000000000000000000000000000000000000000000000000000000008152600401613865906144f5565b60405180910390fd5b6138788282613944565b156138b8576040517f08c379a00000000000000000000000000000000000000000000000000000000081526004016138af90614595565b60405180910390fd5b60018260000160008373ffffffffffffffffffffffffffffffffffffffff1673ffffffffffffffffffffffffffffffffffffffff16815260200190815260200160002060006101000a81548160ff0219169083151502179055505050565b61392a816001613bff90919063ffffffff16565b50565b6139418160016137fe90919063ffffffff16565b50565b60008073ffffffffffffffffffffffffffffffffffffffff168273ffffffffffffffffffffffffffffffffffffffff16141561397f57600080fd5b8260000160008373ffffffffffffffffffffffffffffffffffffffff1673ffffffffffffffffffffffffffffffffffffffff16815260200190815260200160002060009054906101000a900460ff16905092915050565b6139ea8160006137fe90919063ffffffff16565b8073ffffffffffffffffffffffffffffffffffffffff167f2e0ded4123377a3c2bc9a26f1717655a129e2f20752924d42e730ec89c83dbd060405160405180910390a250565b613a44816002613bff90919063ffffffff16565b50565b613a5b8160026137fe90919063ffffffff16565b50565b613a728160036137fe90919063ffffffff16565b50565b613a89816000613bff90919063ffffffff16565b8073ffffffffffffffffffffffffffffffffffffffff167fa5e0f060af304ab17dd418c7927e3da3ae7868189bf387aee09ab179ccc572f260405160405180910390a250565b600073ffffffffffffffffffffffffffffffffffffffff168173ffffffffffffffffffffffffffffffffffffffff161415613b3f576040517f08c379a0000000000000000000000000000000000000000000000000000000008152600401613b36906144b5565b60405180910390fd5b80600460006101000a81548173ffffffffffffffffffffffffffffffffffffffff021916908373ffffffffffffffffffffffffffffffffffffffff1602179055508073ffffffffffffffffffffffffffffffffffffffff16600460009054906101000a900473ffffffffffffffffffffffffffffffffffffffff1673ffffffffffffffffffffffffffffffffffffffff167f5c486528ec3e3f0ea91181cff8116f02bfa350e03b8b6f12e00765adbb5af85c60405160405180910390a350565b600073ffffffffffffffffffffffffffffffffffffffff168173ffffffffffffffffffffffffffffffffffffffff161415613c6f576040517f08c379a0000000000000000000000000000000000000000000000000000000008152600401613c6690614655565b60405180910390fd5b613c798282613944565b613cb8576040517f08c379a0000000000000000000000000000000000000000000000000000000008152600401613caf90614775565b60405180910390fd5b60008260000160008373ffffffffffffffffffffffffffffffffffffffff1673ffffffffffffffffffffffffffffffffffffffff16815260200190815260200160002060006101000a81548160ff0219169083151502179055505050565b828054613d2290614ab0565b90600052602060002090601f016020900481019282613d445760008555613d8b565b82601f10613d5d57805160ff1916838001178555613d8b565b82800160010185558215613d8b579182015b82811115613d8a578251825591602001919060010190613d6f565b5b509050613d989190613d9c565b5090565b5b80821115613db5576000816000905550600101613d9d565b5090565b6000613dcc613dc784614944565b61491f565b905082815260208101848484011115613de857613de7614bd4565b5b613df3848285614a6e565b509392505050565b600081359050613e0a8161501e565b92915050565b600082601f830112613e2557613e24614bcf565b5b8135613e35848260208601613db9565b91505092915050565b600081359050613e4d81615035565b92915050565b600060208284031215613e6957613e68614bde565b5b6000613e7784828501613dfb565b91505092915050565b600080600080600060a08688031215613e9c57613e9b614bde565b5b600086013567ffffffffffffffff811115613eba57613eb9614bd9565b5b613ec688828901613e10565b955050602086013567ffffffffffffffff811115613ee757613ee6614bd9565b5b613ef388828901613e10565b945050604086013567ffffffffffffffff811115613f1457613f13614bd9565b5b613f2088828901613e10565b935050606086013567ffffffffffffffff811115613f4157613f40614bd9565b5b613f4d88828901613e10565b925050608086013567ffffffffffffffff811115613f6e57613f6d614bd9565b5b613f7a88828901613e10565b9150509295509295909350565b600060208284031215613f9d57613f9c614bde565b5b6000613fab84828501613e3e565b91505092915050565b60008060408385031215613fcb57613fca614bde565b5b6000613fd985828601613e3e565b9250506020613fea85828601613dfb565b9150509250929050565b6000806040838503121561400b5761400a614bde565b5b600061401985828601613e3e565b925050602061402a85828601613e3e565b9150509250929050565b61403d81614a26565b82525050565b61404c81614a38565b82525050565b600061405d82614975565b614067818561498b565b9350614077818560208601614a7d565b61408081614be3565b840191505092915050565b6000614098600f8361498b565b91506140a382614bf4565b602082019050919050565b60006140bb60198361498b565b91506140c682614c1d565b602082019050919050565b60006140de601b8361498b565b91506140e982614c46565b602082019050919050565b600061410160158361498b565b915061410c82614c6f565b602082019050919050565b6000614124602a8361498b565b915061412f82614c98565b604082019050919050565b600061414760118361498b565b915061415282614ce7565b602082019050919050565b600061416a60148361498b565b915061417582614d10565b602082019050919050565b600061418d60188361498b565b915061419882614d39565b602082019050919050565b60006141b0601a8361498b565b91506141bb82614d62565b602082019050919050565b60006141d360158361498b565b91506141de82614d8b565b602082019050919050565b60006141f6601c8361498b565b915061420182614db4565b602082019050919050565b6000614219601c8361498b565b915061422482614ddd565b602082019050919050565b600061423c60168361498b565b915061424782614e06565b602082019050919050565b600061425f601c8361498b565b915061426a82614e2f565b602082019050919050565b6000614282601c8361498b565b915061428d82614e58565b602082019050919050565b60006142a560148361498b565b91506142b082614e81565b602082019050919050565b60006142c8601d8361498b565b91506142d382614eaa565b602082019050919050565b60006142eb600083614980565b91506142f682614ed3565b600082019050919050565b600061430e600d8361498b565b915061431982614ed6565b602082019050919050565b600061433160168361498b565b915061433c82614eff565b602082019050919050565b600061435460178361498b565b915061435f82614f28565b602082019050919050565b600061437760138361498b565b915061438282614f51565b602082019050919050565b600061439a60158361498b565b91506143a582614f7a565b602082019050919050565b60006143bd601c8361498b565b91506143c882614fa3565b602082019050919050565b60006143e060168361498b565b91506143eb82614fcc565b602082019050919050565b6000614403601e8361498b565b915061440e82614ff5565b602082019050919050565b61442281614a64565b82525050565b6000614433826142de565b9150819050919050565b60006020820190506144526000830184614034565b92915050565b600060208201905061446d6000830184614043565b92915050565b6000602082019050818103600083015261448d8184614052565b905092915050565b600060208201905081810360008301526144ae8161408b565b9050919050565b600060208201905081810360008301526144ce816140ae565b9050919050565b600060208201905081810360008301526144ee816140d1565b9050919050565b6000602082019050818103600083015261450e816140f4565b9050919050565b6000602082019050818103600083015261452e81614117565b9050919050565b6000602082019050818103600083015261454e8161413a565b9050919050565b6000602082019050818103600083015261456e8161415d565b9050919050565b6000602082019050818103600083015261458e81614180565b9050919050565b600060208201905081810360008301526145ae816141a3565b9050919050565b600060208201905081810360008301526145ce816141c6565b9050919050565b600060208201905081810360008301526145ee816141e9565b9050919050565b6000602082019050818103600083015261460e8161420c565b9050919050565b6000602082019050818103600083015261462e8161422f565b9050919050565b6000602082019050818103600083015261464e81614252565b9050919050565b6000602082019050818103600083015261466e81614275565b9050919050565b6000602082019050818103600083015261468e81614298565b9050919050565b600060208201905081810360008301526146ae816142bb565b9050919050565b600060208201905081810360008301526146ce81614301565b9050919050565b600060208201905081810360008301526146ee81614324565b9050919050565b6000602082019050818103600083015261470e81614347565b9050919050565b6000602082019050818103600083015261472e8161436a565b9050919050565b6000602082019050818103600083015261474e8161438d565b9050919050565b6000602082019050818103600083015261476e816143b0565b9050919050565b6000602082019050818103600083015261478e816143d3565b9050919050565b600060208201905081810360008301526147ae816143f6565b9050919050565b60006020820190506147ca6000830184614419565b92915050565b600060e0820190506147e5600083018a614419565b6147f26020830189614034565b6147ff6040830188614034565b81810360608301526148118187614052565b905081810360808301526148258186614052565b905081810360a08301526148398185614052565b905081810360c083015261484d8184614052565b905098975050505050505050565b60006040820190506148706000830185614419565b61487d6020830184614419565b9392505050565b60006101208201905061489a600083018c614419565b6148a7602083018b614419565b6148b4604083018a614419565b81810360608301526148c68189614052565b90506148d56080830188614419565b81810360a08301526148e78187614052565b90506148f660c0830186614034565b61490360e0830185614034565b614911610100830184614034565b9a9950505050505050505050565b600061492961493a565b90506149358282614ae2565b919050565b6000604051905090565b600067ffffffffffffffff82111561495f5761495e614ba0565b5b61496882614be3565b9050602081019050919050565b600081519050919050565b600081905092915050565b600082825260208201905092915050565b60006149a782614a64565b91506149b283614a64565b9250827fffffffffffffffffffffffffffffffffffffffffffffffffffffffffffffffff038211156149e7576149e6614b13565b5b828201905092915050565b60006149fd82614a64565b9150614a0883614a64565b925082821015614a1b57614a1a614b13565b5b828203905092915050565b6000614a3182614a44565b9050919050565b60008115159050919050565b600073ffffffffffffffffffffffffffffffffffffffff82169050919050565b6000819050919050565b82818337600083830152505050565b60005b83811015614a9b578082015181840152602081019050614a80565b83811115614aaa576000848401525b50505050565b60006002820490506001821680614ac857607f821691505b60208210811415614adc57614adb614b71565b5b50919050565b614aeb82614be3565b810181811067ffffffffffffffff82111715614b0a57614b09614ba0565b5b80604052505050565b7f4e487b7100000000000000000000000000000000000000000000000000000000600052601160045260246000fd5b7f4e487b7100000000000000000000000000000000000000000000000000000000600052602160045260246000fd5b7f4e487b7100000000000000000000000000000000000000000000000000000000600052602260045260246000fd5b7f4e487b7100000000000000000000000000000000000000000000000000000000600052604160045260246000fd5b600080fd5b600080fd5b600080fd5b600080fd5b6000601f19601f8301169050919050565b7f736b752063616e6e6f7420626520300000000000000000000000000000000000600082015250565b7f63616e6e6f74207472616e7366657220746f2061646472203000000000000000600082015250565b7f6d757374206265206469737472696275746f7220616c72656164790000000000600082015250565b7f63616e6e6f742061646420626c61636b20686f6c650000000000000000000000600082015250565b7f616d6f756e742070616964206d75737420626520686967686572207468616e2060008201527f6974656d20707269636500000000000000000000000000000000000000000000602082015250565b7f6e6f7420696e20736f6c64207374617465000000000000000000000000000000600082015250565b7f6661696c656420746f2073656e64206574686572000000000000000000000000600082015250565b7f756e617574686f72697a6564206469737472696275746f720000000000000000600082015250565b7f6163636f756e74206d757374206e6f74206861766520726f6c65000000000000600082015250565b7f6e6f7420696e2072656365697665642073746174650000000000000000000000600082015250565b7f6d75737420626520616e206578697374696e6720636f6e73756d657200000000600082015250565b7f6f6e6c79206f776e65722063616e2063616c6c2066756e6374696f6e00000000600082015250565b7f6e6f7420696e2068617276657374656420737461746500000000000000000000600082015250565b7f6d75737420626520616e206578697374696e672072657461696c657200000000600082015250565b7f616464726573732063616e6e6f7420626520626c61636b20686f6c6500000000600082015250565b7f6e6f7420696e2073686970706564207374617465000000000000000000000000600082015250565b7f6f6e6c79206661726d65722063616e2063616c6c2066756e6374696f6e000000600082015250565b50565b7f6f6e6c7920636f6e73756d657200000000000000000000000000000000000000600082015250565b7f6e6f7420696e2070726f63657373656420737461746500000000000000000000600082015250565b7f7374617475733a206e6f7420757020666f722073616c65000000000000000000600082015250565b7f6e6f7420696e207061636b656420737461746500000000000000000000000000600082015250565b7f756e617574686f72697a65642072657461696c65720000000000000000000000600082015250565b7f63616e6e6f7420626520626c61636b20686f6c65206163636f756e7400000000600082015250565b7f61646472657373206d757374206861766520726f6c6500000000000000000000600082015250565b7f6661696c656420746f2073656e6420657468657220746f206661726d65720000600082015250565b61502781614a26565b811461503257600080fd5b50565b61503e81614a64565b811461504957600080fd5b5056fea2646970667358221220ed1ca61999a24e8e721ee2e4d9062145d63cdaa82112085cad61ae603c035a5064736f6c63430008070033",
  "immutableReferences": {},
  "source": "// SPDX-License-Identifier: MIT\n\npragma solidity >=0.5.0 <0.9.0;\n\nimport '../AccessControl/FarmerRole.sol';\nimport '../AccessControl/DistributorRole.sol';\nimport '../AccessControl/RetailerRole.sol';\nimport '../AccessControl/ConsumerRole.sol';\n\nimport '../Core/Ownable.sol';\n\n\ncontract SupplyChain is FarmerRole, DistributorRole, RetailerRole, ConsumerRole, Ownable {\n\n  address deployer;\n  address owner;\n  uint upc;\n  uint sku;\n\n\n\n  enum State {\n    Unassigned, \n    Harvested, \n    Processed,\n    Packed,\n    ForSale,\n    Sold,\n    Shipped,\n    Received,\n    Purchased\n  }\n\n  State constant defaultState = State.Unassigned;\n\n\n  struct Item {\n      uint sku;\n      uint upc;\n      address ownerID;\n      address originFarmerID;\n      string originFarmName;\n      string originFarmInfo;\n      string originFarmLatitude;\n      string originFarmLongitude;\n      uint productID;\n      string productNotes;\n      uint productPrice;\n      State itemState;\n      address distributorID;\n      address retailerID;\n      address consumerID;\n  }\n\n  mapping(uint => Item) items;\n  mapping(uint => string[]) itemsHistory;\n  \n  \n modifier notZeroAddress(address _account) {\n     require(_account != address(0), 'cannot be black hole account');\n     _;\n }\n  \n  modifier checkSKU(uint _sku) {\n      require(_sku > 0, 'sku cannot be 0');\n      _;\n  }\n\n  modifier verifyCaller(address _account) {\n      require(msg.sender == _account, 'unauthorized');\n      _;\n  }\n\n  modifier harvested(uint _sku) {\n    require(items[_sku].itemState == State.Harvested, 'not in harvested state');\n    _;\n  }\n\n  modifier processed(uint _sku) {\n    require(items[_sku].itemState == State.Processed, 'not in processed state');\n    _;\n  }\n\n  modifier packed(uint _sku) {\n    require(items[_sku].itemState == State.Packed, 'not in packed state');\n    _;\n  }\n  \n  modifier forSale(uint _sku) {\n      require(items[_sku].itemState == State.ForSale, 'status: not up for sale');\n      _;\n  }\n  \n    modifier paidEnough(uint _price) {\n    require(msg.value >= _price, 'amount paid must be higher than item price');\n    _;\n  }\n  \n  modifier checkValue(uint _sku) {\n      _;\n      address distributor = items[_sku].distributorID;\n    uint price = items[_sku].productPrice;\n    uint amountToRefund = msg.value - price;\n    (bool success,) = payable(distributor).call{value: amountToRefund}('');\n    require(success, 'failed to send ether');\n  }\n  \n  modifier sold(uint _sku) {\n      require(items[_sku].itemState == State.Sold, 'not in sold state');\n      _;\n  }\n  \n  modifier shipped(uint _sku) {\n    require(items[_sku].itemState == State.Shipped, 'not in shipped state');\n    _;\n  }\n\n   modifier received(uint _sku) {\n    require(items[_sku].itemState == State.Received, 'not in received state');\n    _;\n  }\n\n  event ItemHarvested(uint sku, uint timestamp);\n  event ItemProcessed(uint sku, uint timestamp);\n  event ItemPacked(uint sku, uint timestamp);\n  event ItemPutUpForSale(uint sku, uint timestamp);\n  event ItemSold(uint sku, uint timestamp);\n  event ItemShipped(uint sku, uint timestamp);\n  event ItemReceived(uint sku, uint timestamp);\n  event ItemPurchased(uint sku, uint timestamp);\n\n\n  constructor() {\n    deployer = msg.sender;\n    owner = msg.sender;\n    sku = 0;\n    upc = 0;\n  }\n\n  function kill() public {\n    if(msg.sender == owner) {\n      selfdestruct(payable(owner));\n    }\n  }\n  \n  \n  function addFarmerAccount(uint _sku, address _account) public onlyOwner checkSKU(_sku) notZeroAddress(_account) {\n    _addFarmer(_account);\n    items[_sku].ownerID = _account;\n    transferOwnershipToAccount(_account);\n      \n  }\n  \n  \n  \n  function transferOwnershipToAccount(address _account) public onlyOwner notZeroAddress(_account) {\n    owner = _account;\n    transferOwnership(_account);\n  }\n  \n  function transferOwnershipToDistributor(uint _sku, address _account) notZeroAddress(_account) public {\n    address distributor = items[_sku].distributorID;\n    require(_account == distributor, 'must be distributor already');\n    owner = distributor;\n      \n  }\n\n  // enable retailser\n  function enableRetailerAccount(uint _sku, address _account) public onlyDistributor checkSKU(_sku) notZeroAddress(_account)  {\n    enableRetailer(_account);\n    items[_sku].retailerID = _account;\n  }\n\n  \n  function enableConsumerAccount(uint _sku, address _account) public onlyRetailer checkSKU(_sku) notZeroAddress(_account) {\n    enableConsumer(_account);\n    items[_sku].consumerID = _account;\n  }\n\n  // transfer ownership to retailer\n  function transferOwnershipToRetailer(uint _sku, address _account)  public notZeroAddress(_account) onlyDistributor {\n    address retailer = items[_sku].retailerID;\n    require(_account == retailer, 'must be an existing retailer');\n    owner = retailer;\n    items[_sku].ownerID = retailer;\n  }\n\n   function transferOwnershipToConsumer(uint _sku, address _account) public notZeroAddress(_account) {\n      address consumer = items[_sku].consumerID;\n      require(_account == consumer, 'must be an existing consumer');\n      owner = consumer;\n      items[_sku].ownerID = consumer;\n      \n  }\n  \n  \n  \n  \n  \n  // harvest \n  function harvestItem(\n    string memory _originFarmName, \n    string memory _originFarmInfo, \n    string memory _originFarmLatitude, \n    string memory _originFarmLongitude, \n    string memory _productNotes\n  )  public  onlyFarmer {\n    sku += 1;\n    uint productID = upc + sku;\n    items[sku] = Item({\n      sku: sku,\n      upc: sku,\n      ownerID: owner,\n      originFarmerID: owner,\n      originFarmName: _originFarmName,\n      originFarmInfo: _originFarmInfo,\n      originFarmLatitude: _originFarmLatitude,\n      originFarmLongitude: _originFarmLongitude,\n      productID: productID,\n      productNotes: _productNotes,\n      productPrice: 0,\n      itemState: State.Harvested,\n      distributorID: address(0),\n      retailerID: address(0),\n      consumerID: address(0)\n    });\n    \n  \n    emit ItemHarvested(sku, block.timestamp);\n  }\n\n  // process \n  function processItem(uint _sku) public checkSKU(_sku) harvested(_sku) onlyFarmer {\n    items[_sku].itemState = State.Processed;\n    emit ItemProcessed(_sku, block.timestamp);\n  }\n\n  // pack\n    function packItem(uint _sku) public checkSKU(_sku) processed(_sku) onlyFarmer {\n    items[_sku].itemState = State.Packed;\n    emit ItemPacked(_sku, block.timestamp);\n  }\n  \n    function putUpItemForSale(uint _sku, uint _price) public packed(_sku) onlyFarmer {\n    items[_sku].itemState = State.ForSale;\n    items[_sku].productPrice = _price;\n    emit ItemPutUpForSale(_sku, block.timestamp);\n  }\n  \n  function buyItem(uint _sku) public payable forSale(_sku) paidEnough(items[_sku].productPrice) checkValue(_sku) onlyDistributor {\n    address distributor = msg.sender;\n    items[_sku].distributorID = distributor;\n    address farmer = items[_sku].originFarmerID;\n    uint price = items[_sku].productPrice;\n    items[_sku].itemState = State.Sold;\n    (bool succes, ) = payable(farmer).call{value: price}('');\n    require(succes, 'failed to send ether to farmer');\n    items[_sku].ownerID = distributor;\n    transferOwnershipToDistributor(_sku, distributor);\n    emit ItemSold(_sku, block.timestamp);\n  }\n\n  function shipItem(uint _sku) public sold(_sku)  onlyDistributor {\n      \n    address retailer = items[_sku].retailerID;\n    items[_sku].itemState = State.Shipped;\n    transferOwnershipToRetailer(_sku, retailer);\n    emit ItemShipped(_sku, block.timestamp);\n  }\n  \n  function receiveItem(uint _sku) public shipped(_sku) onlyRetailer {\n    items[_sku].itemState = State.Received;\n    emit ItemReceived(_sku, block.timestamp);\n      \n  }\n\n  function purchaseItem(uint _sku)  public  received(_sku)   onlyConsumer {\n  \n    items[_sku].itemState = State.Purchased;\n    transferOwnershipToConsumer(_sku, msg.sender);\n    emit ItemPurchased(_sku, block.timestamp);\n  }\n  \n      \n    \n  \n  function getItemStatus(uint _sku) public checkSKU(_sku) view returns(string memory status) {\n    uint itemStatus = uint(items[_sku].itemState);\n    if(itemStatus == 0) {\n        status = 'Unassigned';\n    } else if(itemStatus == 1) {\n        status = 'harvested';\n    } else if(itemStatus == 2) {\n        status = 'Processed';\n        \n    }  else if(itemStatus == 3) {\n        status = 'Packed';\n    }\n    else if(itemStatus == 4) {\n        status = 'For Sale';\n    } else if(itemStatus == 5) {\n        status = 'Sold';\n    } else if(itemStatus == 6) {\n        status = 'Shipped';\n    } else if(itemStatus == 7) {\n        status = 'Received';\n    } else if(itemStatus == 8) {\n        status = 'Purchased';\n    }\n    \n  }\n  \n    \n  function getTotalItems() public view returns(uint) {\n    return sku;\n  }\n  \n  \n  function getOwner() public view returns(address) {\n    return owner;\n  }\n\n  function getItemOwner(uint _sku) checkSKU(_sku) public view returns(address) {\n    return items[_sku].ownerID;\n  }\n\n\n  function fetchFarmDetails(uint _upc)  public view returns (\n    uint itemSKU,\n    address ownerID,\n    address originFarmerID,\n    string memory originFarmInfo,\n    string memory originFarmName,\n    string memory originFarmLatitude,\n    string memory originFarmLongitude\n  ){\n    require(_upc > 0, 'sku cannot be 0');\n    return (\n      items[_upc].sku,\n      items[_upc].ownerID,\n      items[_upc].originFarmerID,\n      items[_upc].originFarmInfo,\n      items[_upc].originFarmName,\n      items[_upc].originFarmLatitude,\n      items[_upc].originFarmLongitude\n    );\n      \n  }\n  \n  \n    \n  function fetchProductDetails(uint _upc)  public checkSKU(_upc) view returns (\n    uint itemSKU,\n    uint itemUPC,\n    uint productID,\n    string memory productNotes,\n    uint productPrice,\n    string memory status,\n    address distributorID,\n    address retailerID,\n    address consumerID\n    ) {\n      itemSKU = items[_upc].sku;\n      itemUPC = items[_upc].upc;\n      productID = items[_upc].productID;\n      productNotes = items[_upc].productNotes;\n      productPrice = items[_upc].productPrice;\n      uint itemState = uint(items[_upc].itemState);\n      if(itemState == 0) {\n          status = 'Unassigned';\n      } else if(itemState == 1) {\n          status = 'Harvested';\n      } else if(itemState == 2) {\n          status = 'Processed';\n      }\n      else if(itemState == 3) {\n          status = 'Packed';\n      } else if(itemState == 4) {\n          status = 'For Sale';\n      } else if(itemState == 5) {\n          status = 'Sold';\n      } else if(itemState == 6) {\n          status = 'Shipped';\n      } else if(itemState == 7) {\n          status = 'Received';\n      } else if(itemState == 8) {\n          status = 'Purchased';\n      }\n      distributorID = items[_upc].distributorID;\n      retailerID = items[_upc].retailerID;\n      consumerID = items[_upc].consumerID;\n  }\n}\n",
  "sourcePath": "/home/sprtd/Desktop/Udacity/lesson-4-supply-chain/supply-chain-dapp/contracts/Base/SupplyChain.sol",
  "compiler": {
    "name": "solc",
    "version": "0.8.7+commit.e28d00a7.Emscripten.clang"
  },
  "schemaVersion": "3.4.3",
  "updatedAt": "2021-09-27T13:07:16.046Z",
  "networkType": "ethereum",
  "devdoc": {
    "kind": "dev",
    "methods": {},
    "version": 1
  },
  "userdoc": {
    "kind": "user",
    "methods": {},
    "version": 1
  }
}